{
  "_format": "hh-sol-artifact-1",
  "contractName": "PolicyManagement",
  "sourceName": "contracts/PolicyManagement.sol",
  "abi": [
    {
      "inputs": [],
      "stateMutability": "nonpayable",
      "type": "constructor"
    },
    {
      "anonymous": false,
      "inputs": [
        {
          "indexed": false,
          "internalType": "string[6]",
          "name": "subject",
          "type": "string[6]"
        },
        {
          "indexed": false,
          "internalType": "string[6]",
          "name": "object",
          "type": "string[6]"
        }
      ],
      "name": "DuplicatePolicyExist",
      "type": "event"
    },
    {
      "anonymous": false,
      "inputs": [
        {
          "indexed": false,
          "internalType": "uint256",
          "name": "pol_id",
          "type": "uint256"
        }
      ],
      "name": "PolicyAdded",
      "type": "event"
    },
    {
      "anonymous": false,
      "inputs": [
        {
          "indexed": false,
          "internalType": "uint256",
          "name": "pol_id",
          "type": "uint256"
        }
      ],
      "name": "PolicyChanged",
      "type": "event"
    },
    {
      "anonymous": false,
      "inputs": [
        {
          "indexed": false,
          "internalType": "uint256",
          "name": "pol_id",
          "type": "uint256"
        }
      ],
      "name": "PolicyDeleted",
      "type": "event"
    },
    {
      "anonymous": false,
      "inputs": [
        {
          "indexed": false,
          "internalType": "string[6]",
          "name": "subject",
          "type": "string[6]"
        },
        {
          "indexed": false,
          "internalType": "string[6]",
          "name": "object",
          "type": "string[6]"
        }
      ],
      "name": "PolicyNotExist",
      "type": "event"
    },
    {
      "inputs": [
        {
          "internalType": "string[6]",
          "name": "sub_arg",
          "type": "string[6]"
        },
        {
          "internalType": "string[6]",
          "name": "obj_arg",
          "type": "string[6]"
        }
      ],
      "name": "find_exact_match_policy",
      "outputs": [
        {
          "internalType": "int256",
          "name": "",
          "type": "int256"
        }
      ],
      "stateMutability": "view",
      "type": "function"
    },
    {
      "inputs": [
        {
          "internalType": "string[6]",
          "name": "sub_arg",
          "type": "string[6]"
        },
        {
          "internalType": "string[6]",
          "name": "obj_arg",
          "type": "string[6]"
        }
      ],
      "name": "find_match_policy",
      "outputs": [
        {
          "internalType": "uint256[]",
          "name": "",
          "type": "uint256[]"
        }
      ],
      "stateMutability": "nonpayable",
      "type": "function"
    },
    {
      "inputs": [
        {
          "internalType": "uint256[]",
          "name": "access_list",
          "type": "uint256[]"
        },
        {
          "internalType": "uint8",
          "name": "action",
          "type": "uint8"
        },
        {
          "internalType": "uint256",
          "name": "ToMFR",
          "type": "uint256"
        }
      ],
      "name": "get_access",
      "outputs": [
        {
          "internalType": "uint8",
          "name": "",
          "type": "uint8"
        }
      ],
      "stateMutability": "view",
      "type": "function"
    },
    {
      "inputs": [
        {
          "internalType": "uint256",
          "name": "pol_id",
          "type": "uint256"
        }
      ],
      "name": "get_policy",
      "outputs": [
        {
          "components": [
            {
              "internalType": "enum PolicyManagement.PolicyState",
              "name": "state",
              "type": "uint8"
            },
            {
              "components": [
                {
                  "internalType": "string",
                  "name": "manufacturer",
                  "type": "string"
                },
                {
                  "internalType": "string",
                  "name": "current_location",
                  "type": "string"
                },
                {
                  "internalType": "string",
                  "name": "vehicle_type",
                  "type": "string"
                },
                {
                  "internalType": "string",
                  "name": "owner_name",
                  "type": "string"
                },
                {
                  "internalType": "string",
                  "name": "license_plate",
                  "type": "string"
                },
                {
                  "internalType": "string",
                  "name": "energy_capacity",
                  "type": "string"
                }
              ],
              "internalType": "struct PolicyManagement.Subject",
              "name": "subject",
              "type": "tuple"
            },
            {
              "components": [
                {
                  "internalType": "string",
                  "name": "plug_type",
                  "type": "string"
                },
                {
                  "internalType": "string",
                  "name": "location",
                  "type": "string"
                },
                {
                  "internalType": "string",
                  "name": "pricing_model",
                  "type": "string"
                },
                {
                  "internalType": "string",
                  "name": "num_charging_outlets",
                  "type": "string"
                },
                {
                  "internalType": "string",
                  "name": "charging_power",
                  "type": "string"
                },
                {
                  "internalType": "string",
                  "name": "fast_charging",
                  "type": "string"
                }
              ],
              "internalType": "struct PolicyManagement.Object",
              "name": "object",
              "type": "tuple"
            },
            {
              "components": [
                {
                  "internalType": "bool",
                  "name": "read",
                  "type": "bool"
                },
                {
                  "internalType": "bool",
                  "name": "write",
                  "type": "bool"
                },
                {
                  "internalType": "bool",
                  "name": "execute",
                  "type": "bool"
                }
              ],
              "internalType": "struct PolicyManagement.Action",
              "name": "action",
              "type": "tuple"
            },
            {
              "components": [
                {
                  "internalType": "uint256",
                  "name": "min_interval",
                  "type": "uint256"
                },
                {
                  "internalType": "uint256",
                  "name": "start_time",
                  "type": "uint256"
                },
                {
                  "internalType": "uint256",
                  "name": "end_time",
                  "type": "uint256"
                }
              ],
              "internalType": "struct PolicyManagement.Context",
              "name": "context",
              "type": "tuple"
            }
          ],
          "internalType": "struct PolicyManagement.Policy",
          "name": "",
          "type": "tuple"
        }
      ],
      "stateMutability": "view",
      "type": "function"
    },
    {
      "inputs": [],
      "name": "get_ret_list",
      "outputs": [
        {
          "internalType": "uint256[]",
          "name": "",
          "type": "uint256[]"
        }
      ],
      "stateMutability": "view",
      "type": "function"
    },
    {
      "inputs": [
        {
          "internalType": "string[6]",
          "name": "sub_arg",
          "type": "string[6]"
        },
        {
          "internalType": "string[6]",
          "name": "obj_arg",
          "type": "string[6]"
        },
        {
          "internalType": "bool[3]",
          "name": "act_arg",
          "type": "bool[3]"
        },
        {
          "internalType": "uint256[3]",
          "name": "con",
          "type": "uint256[3]"
        }
      ],
      "name": "policy_add",
      "outputs": [],
      "stateMutability": "nonpayable",
      "type": "function"
    },
    {
      "inputs": [
        {
          "internalType": "string[6]",
          "name": "sub_arg",
          "type": "string[6]"
        },
        {
          "internalType": "string[6]",
          "name": "obj_arg",
          "type": "string[6]"
        }
      ],
      "name": "policy_delete",
      "outputs": [],
      "stateMutability": "nonpayable",
      "type": "function"
    },
    {
      "inputs": [
        {
          "internalType": "uint256",
          "name": "pol_id",
          "type": "uint256"
        }
      ],
      "name": "policy_reactivate",
      "outputs": [],
      "stateMutability": "nonpayable",
      "type": "function"
    },
    {
      "inputs": [
        {
          "internalType": "uint256",
          "name": "pol_id",
          "type": "uint256"
        }
      ],
      "name": "policy_suspend",
      "outputs": [],
      "stateMutability": "nonpayable",
      "type": "function"
    },
    {
      "inputs": [
        {
          "internalType": "string[6]",
          "name": "sub_arg",
          "type": "string[6]"
        },
        {
          "internalType": "string[6]",
          "name": "obj_arg",
          "type": "string[6]"
        },
        {
          "internalType": "bool[3]",
          "name": "act_arg",
          "type": "bool[3]"
        },
        {
          "internalType": "uint256[3]",
          "name": "con",
          "type": "uint256[3]"
        }
      ],
      "name": "policy_update",
      "outputs": [],
      "stateMutability": "nonpayable",
      "type": "function"
    },
    {
      "inputs": [],
      "name": "total_policies",
      "outputs": [
        {
          "internalType": "uint256",
          "name": "",
          "type": "uint256"
        }
      ],
      "stateMutability": "view",
      "type": "function"
    }
  ],
  "bytecode": "0x608060405234801561001057600080fd5b50336000806101000a81548173ffffffffffffffffffffffffffffffffffffffff021916908373ffffffffffffffffffffffffffffffffffffffff1602179055506000600181905550614c1f806100686000396000f3fe608060405234801561001057600080fd5b50600436106100a95760003560e01c80639818a83b116100715780639818a83b14610152578063a77ee92d1461016e578063b81d89eb1461019e578063c3e16ebb146101ce578063c8e3bf9f146101ea578063e76e4ee814610206576100a9565b806318854bca146100ae5780631adbbb37146100ca5780631b071ad9146100e65780634ab7e0d5146101165780634d417a2d14610134575b600080fd5b6100c860048036038101906100c39190613979565b610236565b005b6100e460048036038101906100df9190613bc0565b6102df565b005b61010060048036038101906100fb9190613bc0565b6107cc565b60405161010d9190613c51565b60405180910390f35b61011e610f01565b60405161012b9190613c7b565b60405180910390f35b61013c610f07565b6040516101499190613d54565b60405180910390f35b61016c60048036038101906101679190613f10565b610f5f565b005b610188600480360381019061018391906140ac565b61150e565b604051610195919061412a565b60405180910390f35b6101b860048036038101906101b39190613bc0565b6118ea565b6040516101c59190613d54565b60405180910390f35b6101e860048036038101906101e39190613f10565b612bcb565b005b61020460048036038101906101ff9190613979565b612f0f565b005b610220600480360381019061021b9190613979565b612fb7565b60405161022d91906144a4565b60405180910390f35b60008054906101000a900473ffffffffffffffffffffffffffffffffffffffff1673ffffffffffffffffffffffffffffffffffffffff163373ffffffffffffffffffffffffffffffffffffffff161461028e57600080fd5b6001600282815481106102a4576102a36144c6565b5b906000526020600020906011020160000160006101000a81548160ff021916908360028111156102d7576102d6614145565b5b021790555050565b60008054906101000a900473ffffffffffffffffffffffffffffffffffffffff1673ffffffffffffffffffffffffffffffffffffffff163373ffffffffffffffffffffffffffffffffffffffff161461033757600080fd5b600061034383836107cc565b90507fffffffffffffffffffffffffffffffffffffffffffffffffffffffffffffffff811461078d57600260016002805490506103809190614524565b81548110610391576103906144c6565b5b9060005260206000209060110201600282815481106103b3576103b26144c6565b5b90600052602060002090601102016000820160009054906101000a900460ff168160000160006101000a81548160ff021916908360028111156103f9576103f8614145565b5b021790555060018201816001016000820181600001908161041a919061477a565b506001820181600101908161042f919061477a565b5060028201816002019081610444919061477a565b5060038201816003019081610459919061477a565b506004820181600401908161046e919061477a565b5060058201816005019081610483919061477a565b5050506007820181600701600082018160000190816104a2919061477a565b50600182018160010190816104b7919061477a565b50600282018160020190816104cc919061477a565b50600382018160030190816104e1919061477a565b50600482018160040190816104f6919061477a565b506005820181600501908161050b919061477a565b505050600d820181600d016000820160009054906101000a900460ff168160000160006101000a81548160ff0219169083151502179055506000820160019054906101000a900460ff168160000160016101000a81548160ff0219169083151502179055506000820160029054906101000a900460ff168160000160026101000a81548160ff0219169083151502179055505050600e820181600e01600082015481600001556001820154816001015560028201548160020155505090505060028054806105dc576105db614862565b5b6001900381819060005260206000209060110201600080820160006101000a81549060ff0219169055600182016000808201600061061a91906137c5565b60018201600061062a91906137c5565b60028201600061063a91906137c5565b60038201600061064a91906137c5565b60048201600061065a91906137c5565b60058201600061066a91906137c5565b5050600782016000808201600061068191906137c5565b60018201600061069191906137c5565b6002820160006106a191906137c5565b6003820160006106b191906137c5565b6004820160006106c191906137c5565b6005820160006106d191906137c5565b5050600d8201600080820160006101000a81549060ff02191690556000820160016101000a81549060ff02191690556000820160026101000a81549060ff02191690555050600e8201600080820160009055600182016000905560028201600090555050505090556001600081548092919061074c90614891565b91905055507f433ab09ab993382af577c4a70f77dcc7cf149b5b52eb40d19b869664bfb5496d816040516107809190613c7b565b60405180910390a16107c7565b7f10a48c1cbf691dbf6aee819b699107ffe84af67779fdabfcb61132bae2e883e983836040516107be929190614970565b60405180910390a15b505050565b60008060007fffffffffffffffffffffffffffffffffffffffffffffffffffffffffffffffff9050600091505b600154821015610ef65784600060068110610817576108166144c6565b5b602002015160405160200161082c91906149e3565b6040516020818303038152906040528051906020012060028381548110610856576108556144c6565b5b906000526020600020906011020160010160000160405160200161087a9190614a7d565b6040516020818303038152906040528051906020012003610ee357846001600681106108a9576108a86144c6565b5b60200201516040516020016108be91906149e3565b60405160208183030381529060405280519060200120600283815481106108e8576108e76144c6565b5b906000526020600020906011020160010160010160405160200161090c9190614a7d565b6040516020818303038152906040528051906020012003610ee3578460026006811061093b5761093a6144c6565b5b602002015160405160200161095091906149e3565b604051602081830303815290604052805190602001206002838154811061097a576109796144c6565b5b906000526020600020906011020160010160020160405160200161099e9190614a7d565b6040516020818303038152906040528051906020012003610ee357846003600681106109cd576109cc6144c6565b5b60200201516040516020016109e291906149e3565b6040516020818303038152906040528051906020012060028381548110610a0c57610a0b6144c6565b5b9060005260206000209060110201600101600301604051602001610a309190614a7d565b6040516020818303038152906040528051906020012003610ee35784600460068110610a5f57610a5e6144c6565b5b6020020151604051602001610a7491906149e3565b6040516020818303038152906040528051906020012060028381548110610a9e57610a9d6144c6565b5b9060005260206000209060110201600101600401604051602001610ac29190614a7d565b6040516020818303038152906040528051906020012003610ee35784600560068110610af157610af06144c6565b5b6020020151604051602001610b0691906149e3565b6040516020818303038152906040528051906020012060028381548110610b3057610b2f6144c6565b5b9060005260206000209060110201600101600501604051602001610b549190614a7d565b6040516020818303038152906040528051906020012003610ee35783600060068110610b8357610b826144c6565b5b6020020151604051602001610b9891906149e3565b6040516020818303038152906040528051906020012060028381548110610bc257610bc16144c6565b5b9060005260206000209060110201600701600001604051602001610be69190614a7d565b6040516020818303038152906040528051906020012003610ee35783600160068110610c1557610c146144c6565b5b6020020151604051602001610c2a91906149e3565b6040516020818303038152906040528051906020012060028381548110610c5457610c536144c6565b5b9060005260206000209060110201600701600101604051602001610c789190614a7d565b6040516020818303038152906040528051906020012003610ee35783600260068110610ca757610ca66144c6565b5b6020020151604051602001610cbc91906149e3565b6040516020818303038152906040528051906020012060028381548110610ce657610ce56144c6565b5b9060005260206000209060110201600701600201604051602001610d0a9190614a7d565b6040516020818303038152906040528051906020012003610ee35783600360068110610d3957610d386144c6565b5b6020020151604051602001610d4e91906149e3565b6040516020818303038152906040528051906020012060028381548110610d7857610d776144c6565b5b9060005260206000209060110201600701600301604051602001610d9c9190614a7d565b6040516020818303038152906040528051906020012003610ee35783600460068110610dcb57610dca6144c6565b5b6020020151604051602001610de091906149e3565b6040516020818303038152906040528051906020012060028381548110610e0a57610e096144c6565b5b9060005260206000209060110201600701600401604051602001610e2e9190614a7d565b6040516020818303038152906040528051906020012003610ee35783600560068110610e5d57610e5c6144c6565b5b6020020151604051602001610e7291906149e3565b6040516020818303038152906040528051906020012060028381548110610e9c57610e9b6144c6565b5b9060005260206000209060110201600701600501604051602001610ec09190614a7d565b6040516020818303038152906040528051906020012003610ee357819050610ef6565b8180610eee90614a94565b9250506107f9565b809250505092915050565b60015481565b60606003805480602002602001604051908101604052809291908181526020018280548015610f5557602002820191906000526020600020905b815481526020019060010190808311610f41575b5050505050905090565b60008054906101000a900473ffffffffffffffffffffffffffffffffffffffff1673ffffffffffffffffffffffffffffffffffffffff163373ffffffffffffffffffffffffffffffffffffffff1614610fb757600080fd5b7fffffffffffffffffffffffffffffffffffffffffffffffffffffffffffffffff610fe285856107cc565b036114ce57600060015490506001600081548092919061100190614a94565b919050555060026040518060a001604052806001600281111561102757611026614145565b5b81526020016040518060c001604052808960006006811061104b5761104a6144c6565b5b6020020151815260200189600160068110611069576110686144c6565b5b6020020151815260200189600260068110611087576110866144c6565b5b60200201518152602001896003600681106110a5576110a46144c6565b5b60200201518152602001896004600681106110c3576110c26144c6565b5b60200201518152602001896005600681106110e1576110e06144c6565b5b602002015181525081526020016040518060c001604052808860006006811061110d5761110c6144c6565b5b602002015181526020018860016006811061112b5761112a6144c6565b5b6020020151815260200188600260068110611149576111486144c6565b5b6020020151815260200188600360068110611167576111666144c6565b5b6020020151815260200188600460068110611185576111846144c6565b5b60200201518152602001886005600681106111a3576111a26144c6565b5b602002015181525081526020016040518060600160405280876000600381106111cf576111ce6144c6565b5b602002015115158152602001876001600381106111ef576111ee6144c6565b5b6020020151151581526020018760026003811061120f5761120e6144c6565b5b60200201511515815250815260200160405180606001604052808660006003811061123d5761123c6144c6565b5b602002015181526020018660016003811061125b5761125a6144c6565b5b6020020151815260200186600260038110611279576112786144c6565b5b6020020151815250815250908060018154018082558091505060019003906000526020600020906011020160009091909190915060008201518160000160006101000a81548160ff021916908360028111156112d8576112d7614145565b5b021790555060208201518160010160008201518160000190816112fb9190614adc565b5060208201518160010190816113119190614adc565b5060408201518160020190816113279190614adc565b50606082015181600301908161133d9190614adc565b5060808201518160040190816113539190614adc565b5060a08201518160050190816113699190614adc565b505050604082015181600701600082015181600001908161138a9190614adc565b5060208201518160010190816113a09190614adc565b5060408201518160020190816113b69190614adc565b5060608201518160030190816113cc9190614adc565b5060808201518160040190816113e29190614adc565b5060a08201518160050190816113f89190614adc565b505050606082015181600d0160008201518160000160006101000a81548160ff02191690831515021790555060208201518160000160016101000a81548160ff02191690831515021790555060408201518160000160026101000a81548160ff0219169083151502179055505050608082015181600e01600082015181600001556020820151816001015560408201518160020155505050507f024a1db391c63d350ba33664c84386c69b2f4891094f69f737890d6cba9603fb816040516114c09190613c7b565b60405180910390a150611508565b7fd8050e2990505afb6ee7cb576132d228a01eaa2f8defca8e279bb97aebb7ec9184846040516114ff929190614970565b60405180910390a15b50505050565b60008084510361152157600190506118e3565b60008060008060005b8851811015611845576002898281518110611548576115476144c6565b5b602002602001015181548110611561576115606144c6565b5b9060005260206000209060110201600e016000015487426115829190614524565b1180156115d05750600289828151811061159f5761159e6144c6565b5b6020026020010151815481106115b8576115b76144c6565b5b9060005260206000209060110201600e016001015442115b801561161d575060028982815181106115ec576115eb6144c6565b5b602002602001015181548110611605576116046144c6565b5b9060005260206000209060110201600e016002015442105b15611735576002898281518110611637576116366144c6565b5b6020026020010151815481106116505761164f6144c6565b5b9060005260206000209060110201600d0160000160009054906101000a900460ff161561167c57600193505b6002898281518110611691576116906144c6565b5b6020026020010151815481106116aa576116a96144c6565b5b9060005260206000209060110201600d0160000160019054906101000a900460ff16156116d657600192505b60028982815181106116eb576116ea6144c6565b5b602002602001015181548110611704576117036144c6565b5b9060005260206000209060110201600d0160000160029054906101000a900460ff161561173057600191505b611832565b600289828151811061174a576117496144c6565b5b602002602001015181548110611763576117626144c6565b5b9060005260206000209060110201600e0160010154421115806117c857506002898281518110611796576117956144c6565b5b6020026020010151815481106117af576117ae6144c6565b5b9060005260206000209060110201600e01600201544210155b156117d65760039450611831565b60028982815181106117eb576117ea6144c6565b5b602002602001015181548110611804576118036144c6565b5b9060005260206000209060110201600e016000015487426118259190614524565b101561183057600494505b5b5b808061183d90614a94565b91505061152a565b5060008760ff161480156118565750825b1561186457600093506118db565b60018760ff161480156118745750815b1561188257600093506118da565b60028760ff161480156118925750805b156118a057600093506118d9565b60038760ff161480156118b05750825b80156118b95750815b156118c757600093506118d8565b60008460ff16036118d757600293505b5b5b5b5b839450505050505b9392505050565b606060008060038054905090505b600081111561193c57600380548061191357611912614862565b5b60019003818190600052602060002001600090559055808061193490614891565b9150506118f8565b600091505b600154821015612b705760405160200161195a90614bd4565b6040516020818303038152906040528051906020012085600060068110611984576119836144c6565b5b602002015160405160200161199991906149e3565b6040516020818303038152906040528051906020012014158015611a2e57506040516020016119c790614bd4565b60405160208183030381529060405280519060200120600283815481106119f1576119f06144c6565b5b9060005260206000209060110201600101600001604051602001611a159190614a7d565b6040516020818303038152906040528051906020012014155b8015611ac5575084600060068110611a4957611a486144c6565b5b6020020151604051602001611a5e91906149e3565b6040516020818303038152906040528051906020012060028381548110611a8857611a876144c6565b5b9060005260206000209060110201600101600001604051602001611aac9190614a7d565b6040516020818303038152906040528051906020012014155b612b5d57604051602001611ad890614bd4565b6040516020818303038152906040528051906020012085600160068110611b0257611b016144c6565b5b6020020151604051602001611b1791906149e3565b6040516020818303038152906040528051906020012014158015611bac5750604051602001611b4590614bd4565b6040516020818303038152906040528051906020012060028381548110611b6f57611b6e6144c6565b5b9060005260206000209060110201600101600101604051602001611b939190614a7d565b6040516020818303038152906040528051906020012014155b8015611c43575084600160068110611bc757611bc66144c6565b5b6020020151604051602001611bdc91906149e3565b6040516020818303038152906040528051906020012060028381548110611c0657611c056144c6565b5b9060005260206000209060110201600101600101604051602001611c2a9190614a7d565b6040516020818303038152906040528051906020012014155b612b5d57604051602001611c5690614bd4565b6040516020818303038152906040528051906020012085600260068110611c8057611c7f6144c6565b5b6020020151604051602001611c9591906149e3565b6040516020818303038152906040528051906020012014158015611d2a5750604051602001611cc390614bd4565b6040516020818303038152906040528051906020012060028381548110611ced57611cec6144c6565b5b9060005260206000209060110201600101600201604051602001611d119190614a7d565b6040516020818303038152906040528051906020012014155b8015611dc1575084600260068110611d4557611d446144c6565b5b6020020151604051602001611d5a91906149e3565b6040516020818303038152906040528051906020012060028381548110611d8457611d836144c6565b5b9060005260206000209060110201600101600201604051602001611da89190614a7d565b6040516020818303038152906040528051906020012014155b612b5d57604051602001611dd490614bd4565b6040516020818303038152906040528051906020012085600360068110611dfe57611dfd6144c6565b5b6020020151604051602001611e1391906149e3565b6040516020818303038152906040528051906020012014158015611ea85750604051602001611e4190614bd4565b6040516020818303038152906040528051906020012060028381548110611e6b57611e6a6144c6565b5b9060005260206000209060110201600101600301604051602001611e8f9190614a7d565b6040516020818303038152906040528051906020012014155b8015611f3f575084600360068110611ec357611ec26144c6565b5b6020020151604051602001611ed891906149e3565b6040516020818303038152906040528051906020012060028381548110611f0257611f016144c6565b5b9060005260206000209060110201600101600301604051602001611f269190614a7d565b6040516020818303038152906040528051906020012014155b612b5d57604051602001611f5290614bd4565b6040516020818303038152906040528051906020012085600460068110611f7c57611f7b6144c6565b5b6020020151604051602001611f9191906149e3565b60405160208183030381529060405280519060200120141580156120265750604051602001611fbf90614bd4565b6040516020818303038152906040528051906020012060028381548110611fe957611fe86144c6565b5b906000526020600020906011020160010160040160405160200161200d9190614a7d565b6040516020818303038152906040528051906020012014155b80156120bd575084600460068110612041576120406144c6565b5b602002015160405160200161205691906149e3565b60405160208183030381529060405280519060200120600283815481106120805761207f6144c6565b5b90600052602060002090601102016001016004016040516020016120a49190614a7d565b6040516020818303038152906040528051906020012014155b612b5d576040516020016120d090614bd4565b60405160208183030381529060405280519060200120856005600681106120fa576120f96144c6565b5b602002015160405160200161210f91906149e3565b60405160208183030381529060405280519060200120141580156121a4575060405160200161213d90614bd4565b6040516020818303038152906040528051906020012060028381548110612167576121666144c6565b5b906000526020600020906011020160010160050160405160200161218b9190614a7d565b6040516020818303038152906040528051906020012014155b801561223b5750846005600681106121bf576121be6144c6565b5b60200201516040516020016121d491906149e3565b60405160208183030381529060405280519060200120600283815481106121fe576121fd6144c6565b5b90600052602060002090601102016001016005016040516020016122229190614a7d565b6040516020818303038152906040528051906020012014155b612b5d5760405160200161224e90614bd4565b6040516020818303038152906040528051906020012084600060068110612278576122776144c6565b5b602002015160405160200161228d91906149e3565b604051602081830303815290604052805190602001201415801561232257506040516020016122bb90614bd4565b60405160208183030381529060405280519060200120600283815481106122e5576122e46144c6565b5b90600052602060002090601102016007016000016040516020016123099190614a7d565b6040516020818303038152906040528051906020012014155b80156123b957508360006006811061233d5761233c6144c6565b5b602002015160405160200161235291906149e3565b604051602081830303815290604052805190602001206002838154811061237c5761237b6144c6565b5b90600052602060002090601102016007016000016040516020016123a09190614a7d565b6040516020818303038152906040528051906020012014155b612b5d576040516020016123cc90614bd4565b60405160208183030381529060405280519060200120846001600681106123f6576123f56144c6565b5b602002015160405160200161240b91906149e3565b60405160208183030381529060405280519060200120141580156124a0575060405160200161243990614bd4565b6040516020818303038152906040528051906020012060028381548110612463576124626144c6565b5b90600052602060002090601102016007016001016040516020016124879190614a7d565b6040516020818303038152906040528051906020012014155b80156125375750836001600681106124bb576124ba6144c6565b5b60200201516040516020016124d091906149e3565b60405160208183030381529060405280519060200120600283815481106124fa576124f96144c6565b5b906000526020600020906011020160070160010160405160200161251e9190614a7d565b6040516020818303038152906040528051906020012014155b612b5d5760405160200161254a90614bd4565b6040516020818303038152906040528051906020012084600260068110612574576125736144c6565b5b602002015160405160200161258991906149e3565b604051602081830303815290604052805190602001201415801561261e57506040516020016125b790614bd4565b60405160208183030381529060405280519060200120600283815481106125e1576125e06144c6565b5b90600052602060002090601102016007016002016040516020016126059190614a7d565b6040516020818303038152906040528051906020012014155b80156126b5575083600260068110612639576126386144c6565b5b602002015160405160200161264e91906149e3565b6040516020818303038152906040528051906020012060028381548110612678576126776144c6565b5b906000526020600020906011020160070160020160405160200161269c9190614a7d565b6040516020818303038152906040528051906020012014155b612b5d576040516020016126c890614bd4565b60405160208183030381529060405280519060200120846003600681106126f2576126f16144c6565b5b602002015160405160200161270791906149e3565b604051602081830303815290604052805190602001201415801561279c575060405160200161273590614bd4565b604051602081830303815290604052805190602001206002838154811061275f5761275e6144c6565b5b90600052602060002090601102016007016003016040516020016127839190614a7d565b6040516020818303038152906040528051906020012014155b80156128335750836003600681106127b7576127b66144c6565b5b60200201516040516020016127cc91906149e3565b60405160208183030381529060405280519060200120600283815481106127f6576127f56144c6565b5b906000526020600020906011020160070160030160405160200161281a9190614a7d565b6040516020818303038152906040528051906020012014155b612b5d5760405160200161284690614bd4565b60405160208183030381529060405280519060200120846004600681106128705761286f6144c6565b5b602002015160405160200161288591906149e3565b604051602081830303815290604052805190602001201415801561291a57506040516020016128b390614bd4565b60405160208183030381529060405280519060200120600283815481106128dd576128dc6144c6565b5b90600052602060002090601102016007016004016040516020016129019190614a7d565b6040516020818303038152906040528051906020012014155b80156129b1575083600460068110612935576129346144c6565b5b602002015160405160200161294a91906149e3565b6040516020818303038152906040528051906020012060028381548110612974576129736144c6565b5b90600052602060002090601102016007016004016040516020016129989190614a7d565b6040516020818303038152906040528051906020012014155b612b5d576040516020016129c490614bd4565b60405160208183030381529060405280519060200120846005600681106129ee576129ed6144c6565b5b6020020151604051602001612a0391906149e3565b6040516020818303038152906040528051906020012014158015612a985750604051602001612a3190614bd4565b6040516020818303038152906040528051906020012060028381548110612a5b57612a5a6144c6565b5b9060005260206000209060110201600701600501604051602001612a7f9190614a7d565b6040516020818303038152906040528051906020012014155b8015612b2f575083600560068110612ab357612ab26144c6565b5b6020020151604051602001612ac891906149e3565b6040516020818303038152906040528051906020012060028381548110612af257612af16144c6565b5b9060005260206000209060110201600701600501604051602001612b169190614a7d565b6040516020818303038152906040528051906020012014155b612b5d5760038290806001815401808255809150506001900390600052602060002001600090919091909150555b8180612b6890614a94565b925050611941565b6003805480602002602001604051908101604052809291908181526020018280548015612bbc57602002820191906000526020600020905b815481526020019060010190808311612ba8575b50505050509250505092915050565b60008054906101000a900473ffffffffffffffffffffffffffffffffffffffff1673ffffffffffffffffffffffffffffffffffffffff163373ffffffffffffffffffffffffffffffffffffffff1614612c2357600080fd5b6000612c2f85856107cc565b90507fffffffffffffffffffffffffffffffffffffffffffffffffffffffffffffffff8114612ece5760016002811115612c6c57612c6b614145565b5b60028281548110612c8057612c7f6144c6565b5b906000526020600020906011020160000160009054906101000a900460ff166002811115612cb157612cb0614145565b5b14612cbb57600080fd5b82600060038110612ccf57612cce6144c6565b5b602002015160028281548110612ce857612ce76144c6565b5b9060005260206000209060110201600d0160000160006101000a81548160ff02191690831515021790555082600160038110612d2757612d266144c6565b5b602002015160028281548110612d4057612d3f6144c6565b5b9060005260206000209060110201600d0160000160016101000a81548160ff02191690831515021790555082600260038110612d7f57612d7e6144c6565b5b602002015160028281548110612d9857612d976144c6565b5b9060005260206000209060110201600d0160000160026101000a81548160ff02191690831515021790555081600060038110612dd757612dd66144c6565b5b602002015160028281548110612df057612def6144c6565b5b9060005260206000209060110201600e016000018190555081600160038110612e1c57612e1b6144c6565b5b602002015160028281548110612e3557612e346144c6565b5b9060005260206000209060110201600e016001018190555081600260038110612e6157612e606144c6565b5b602002015160028281548110612e7a57612e796144c6565b5b9060005260206000209060110201600e01600201819055507fc21f3525d7b7c17a17539b981322b821b7cb2ed1d6a569badf78c55fa7665a9681604051612ec19190613c7b565b60405180910390a1612f08565b7f10a48c1cbf691dbf6aee819b699107ffe84af67779fdabfcb61132bae2e883e98585604051612eff929190614970565b60405180910390a15b5050505050565b60008054906101000a900473ffffffffffffffffffffffffffffffffffffffff1673ffffffffffffffffffffffffffffffffffffffff163373ffffffffffffffffffffffffffffffffffffffff1614612f6757600080fd5b6002808281548110612f7c57612f7b6144c6565b5b906000526020600020906011020160000160006101000a81548160ff02191690836002811115612faf57612fae614145565b5b021790555050565b612fbf613805565b60028281548110612fd357612fd26144c6565b5b90600052602060002090601102016040518060a00160405290816000820160009054906101000a900460ff16600281111561301157613010614145565b5b600281111561302357613022614145565b5b8152602001600182016040518060c001604052908160008201805461304790614587565b80601f016020809104026020016040519081016040528092919081815260200182805461307390614587565b80156130c05780601f10613095576101008083540402835291602001916130c0565b820191906000526020600020905b8154815290600101906020018083116130a357829003601f168201915b505050505081526020016001820180546130d990614587565b80601f016020809104026020016040519081016040528092919081815260200182805461310590614587565b80156131525780601f1061312757610100808354040283529160200191613152565b820191906000526020600020905b81548152906001019060200180831161313557829003601f168201915b5050505050815260200160028201805461316b90614587565b80601f016020809104026020016040519081016040528092919081815260200182805461319790614587565b80156131e45780601f106131b9576101008083540402835291602001916131e4565b820191906000526020600020905b8154815290600101906020018083116131c757829003601f168201915b505050505081526020016003820180546131fd90614587565b80601f016020809104026020016040519081016040528092919081815260200182805461322990614587565b80156132765780601f1061324b57610100808354040283529160200191613276565b820191906000526020600020905b81548152906001019060200180831161325957829003601f168201915b5050505050815260200160048201805461328f90614587565b80601f01602080910402602001604051908101604052809291908181526020018280546132bb90614587565b80156133085780601f106132dd57610100808354040283529160200191613308565b820191906000526020600020905b8154815290600101906020018083116132eb57829003601f168201915b5050505050815260200160058201805461332190614587565b80601f016020809104026020016040519081016040528092919081815260200182805461334d90614587565b801561339a5780601f1061336f5761010080835404028352916020019161339a565b820191906000526020600020905b81548152906001019060200180831161337d57829003601f168201915b5050505050815250508152602001600782016040518060c00160405290816000820180546133c790614587565b80601f01602080910402602001604051908101604052809291908181526020018280546133f390614587565b80156134405780601f1061341557610100808354040283529160200191613440565b820191906000526020600020905b81548152906001019060200180831161342357829003601f168201915b5050505050815260200160018201805461345990614587565b80601f016020809104026020016040519081016040528092919081815260200182805461348590614587565b80156134d25780601f106134a7576101008083540402835291602001916134d2565b820191906000526020600020905b8154815290600101906020018083116134b557829003601f168201915b505050505081526020016002820180546134eb90614587565b80601f016020809104026020016040519081016040528092919081815260200182805461351790614587565b80156135645780601f1061353957610100808354040283529160200191613564565b820191906000526020600020905b81548152906001019060200180831161354757829003601f168201915b5050505050815260200160038201805461357d90614587565b80601f01602080910402602001604051908101604052809291908181526020018280546135a990614587565b80156135f65780601f106135cb576101008083540402835291602001916135f6565b820191906000526020600020905b8154815290600101906020018083116135d957829003601f168201915b5050505050815260200160048201805461360f90614587565b80601f016020809104026020016040519081016040528092919081815260200182805461363b90614587565b80156136885780601f1061365d57610100808354040283529160200191613688565b820191906000526020600020905b81548152906001019060200180831161366b57829003601f168201915b505050505081526020016005820180546136a190614587565b80601f01602080910402602001604051908101604052809291908181526020018280546136cd90614587565b801561371a5780601f106136ef5761010080835404028352916020019161371a565b820191906000526020600020905b8154815290600101906020018083116136fd57829003601f168201915b5050505050815250508152602001600d82016040518060600160405290816000820160009054906101000a900460ff161515151581526020016000820160019054906101000a900460ff161515151581526020016000820160029054906101000a900460ff1615151515815250508152602001600e82016040518060600160405290816000820154815260200160018201548152602001600282015481525050815250509050919050565b5080546137d190614587565b6000825580601f106137e35750613802565b601f016020900490600052602060002090810190613801919061385e565b5b50565b6040518060a001604052806000600281111561382457613823614145565b5b815260200161383161387b565b815260200161383e6138b1565b815260200161384b6138e7565b815260200161385861390e565b81525090565b5b8082111561387757600081600090555060010161385f565b5090565b6040518060c001604052806060815260200160608152602001606081526020016060815260200160608152602001606081525090565b6040518060c001604052806060815260200160608152602001606081526020016060815260200160608152602001606081525090565b60405180606001604052806000151581526020016000151581526020016000151581525090565b60405180606001604052806000815260200160008152602001600081525090565b6000604051905090565b600080fd5b600080fd5b6000819050919050565b61395681613943565b811461396157600080fd5b50565b6000813590506139738161394d565b92915050565b60006020828403121561398f5761398e613939565b5b600061399d84828501613964565b91505092915050565b600080fd5b6000601f19601f8301169050919050565b7f4e487b7100000000000000000000000000000000000000000000000000000000600052604160045260246000fd5b6139f4826139ab565b810181811067ffffffffffffffff82111715613a1357613a126139bc565b5b80604052505050565b6000613a2661392f565b9050613a3282826139eb565b919050565b600067ffffffffffffffff821115613a5257613a516139bc565b5b602082029050919050565b600080fd5b600080fd5b600067ffffffffffffffff821115613a8257613a816139bc565b5b613a8b826139ab565b9050602081019050919050565b82818337600083830152505050565b6000613aba613ab584613a67565b613a1c565b905082815260208101848484011115613ad657613ad5613a62565b5b613ae1848285613a98565b509392505050565b600082601f830112613afe57613afd6139a6565b5b8135613b0e848260208601613aa7565b91505092915050565b6000613b2a613b2584613a37565b613a1c565b90508060208402830185811115613b4457613b43613a5d565b5b835b81811015613b8b57803567ffffffffffffffff811115613b6957613b686139a6565b5b808601613b768982613ae9565b85526020850194505050602081019050613b46565b5050509392505050565b600082601f830112613baa57613ba96139a6565b5b6006613bb7848285613b17565b91505092915050565b60008060408385031215613bd757613bd6613939565b5b600083013567ffffffffffffffff811115613bf557613bf461393e565b5b613c0185828601613b95565b925050602083013567ffffffffffffffff811115613c2257613c2161393e565b5b613c2e85828601613b95565b9150509250929050565b6000819050919050565b613c4b81613c38565b82525050565b6000602082019050613c666000830184613c42565b92915050565b613c7581613943565b82525050565b6000602082019050613c906000830184613c6c565b92915050565b600081519050919050565b600082825260208201905092915050565b6000819050602082019050919050565b613ccb81613943565b82525050565b6000613cdd8383613cc2565b60208301905092915050565b6000602082019050919050565b6000613d0182613c96565b613d0b8185613ca1565b9350613d1683613cb2565b8060005b83811015613d47578151613d2e8882613cd1565b9750613d3983613ce9565b925050600181019050613d1a565b5085935050505092915050565b60006020820190508181036000830152613d6e8184613cf6565b905092915050565b600067ffffffffffffffff821115613d9157613d906139bc565b5b602082029050919050565b60008115159050919050565b613db181613d9c565b8114613dbc57600080fd5b50565b600081359050613dce81613da8565b92915050565b6000613de7613de284613d76565b613a1c565b90508060208402830185811115613e0157613e00613a5d565b5b835b81811015613e2a5780613e168882613dbf565b845260208401935050602081019050613e03565b5050509392505050565b600082601f830112613e4957613e486139a6565b5b6003613e56848285613dd4565b91505092915050565b600067ffffffffffffffff821115613e7a57613e796139bc565b5b602082029050919050565b6000613e98613e9384613e5f565b613a1c565b90508060208402830185811115613eb257613eb1613a5d565b5b835b81811015613edb5780613ec78882613964565b845260208401935050602081019050613eb4565b5050509392505050565b600082601f830112613efa57613ef96139a6565b5b6003613f07848285613e85565b91505092915050565b6000806000806101008587031215613f2b57613f2a613939565b5b600085013567ffffffffffffffff811115613f4957613f4861393e565b5b613f5587828801613b95565b945050602085013567ffffffffffffffff811115613f7657613f7561393e565b5b613f8287828801613b95565b9350506040613f9387828801613e34565b92505060a0613fa487828801613ee5565b91505092959194509250565b600067ffffffffffffffff821115613fcb57613fca6139bc565b5b602082029050602081019050919050565b6000613fef613fea84613fb0565b613a1c565b9050808382526020820190506020840283018581111561401257614011613a5d565b5b835b8181101561403b57806140278882613964565b845260208401935050602081019050614014565b5050509392505050565b600082601f83011261405a576140596139a6565b5b813561406a848260208601613fdc565b91505092915050565b600060ff82169050919050565b61408981614073565b811461409457600080fd5b50565b6000813590506140a681614080565b92915050565b6000806000606084860312156140c5576140c4613939565b5b600084013567ffffffffffffffff8111156140e3576140e261393e565b5b6140ef86828701614045565b935050602061410086828701614097565b925050604061411186828701613964565b9150509250925092565b61412481614073565b82525050565b600060208201905061413f600083018461411b565b92915050565b7f4e487b7100000000000000000000000000000000000000000000000000000000600052602160045260246000fd5b6003811061418557614184614145565b5b50565b600081905061419682614174565b919050565b60006141a682614188565b9050919050565b6141b68161419b565b82525050565b600081519050919050565b600082825260208201905092915050565b60005b838110156141f65780820151818401526020810190506141db565b60008484015250505050565b600061420d826141bc565b61421781856141c7565b93506142278185602086016141d8565b614230816139ab565b840191505092915050565b600060c08301600083015184820360008601526142588282614202565b915050602083015184820360208601526142728282614202565b9150506040830151848203604086015261428c8282614202565b915050606083015184820360608601526142a68282614202565b915050608083015184820360808601526142c08282614202565b91505060a083015184820360a08601526142da8282614202565b9150508091505092915050565b600060c08301600083015184820360008601526143048282614202565b9150506020830151848203602086015261431e8282614202565b915050604083015184820360408601526143388282614202565b915050606083015184820360608601526143528282614202565b9150506080830151848203608086015261436c8282614202565b91505060a083015184820360a08601526143868282614202565b9150508091505092915050565b61439c81613d9c565b82525050565b6060820160008201516143b86000850182614393565b5060208201516143cb6020850182614393565b5060408201516143de6040850182614393565b50505050565b6060820160008201516143fa6000850182613cc2565b50602082015161440d6020850182613cc2565b5060408201516144206040850182613cc2565b50505050565b60006101208301600083015161443f60008601826141ad565b5060208301518482036020860152614457828261423b565b9150506040830151848203604086015261447182826142e7565b915050606083015161448660608601826143a2565b50608083015161449960c08601826143e4565b508091505092915050565b600060208201905081810360008301526144be8184614426565b905092915050565b7f4e487b7100000000000000000000000000000000000000000000000000000000600052603260045260246000fd5b7f4e487b7100000000000000000000000000000000000000000000000000000000600052601160045260246000fd5b600061452f82613943565b915061453a83613943565b9250828203905081811115614552576145516144f5565b5b92915050565b7f4e487b7100000000000000000000000000000000000000000000000000000000600052602260045260246000fd5b6000600282049050600182168061459f57607f821691505b6020821081036145b2576145b1614558565b5b50919050565b6000815490506145c781614587565b9050919050565b60008190508160005260206000209050919050565b60006020601f8301049050919050565b600082821b905092915050565b6000600883026146307fffffffffffffffffffffffffffffffffffffffffffffffffffffffffffffffff826145f3565b61463a86836145f3565b95508019841693508086168417925050509392505050565b6000819050919050565b600061467761467261466d84613943565b614652565b613943565b9050919050565b6000819050919050565b6146918361465c565b6146a561469d8261467e565b848454614600565b825550505050565b600090565b6146ba6146ad565b6146c5818484614688565b505050565b5b818110156146e9576146de6000826146b2565b6001810190506146cb565b5050565b601f82111561472e576146ff816145ce565b614708846145e3565b81016020851015614717578190505b61472b614723856145e3565b8301826146ca565b50505b505050565b600082821c905092915050565b600061475160001984600802614733565b1980831691505092915050565b600061476a8383614740565b9150826002028217905092915050565b818103614788575050614860565b614791826145b8565b67ffffffffffffffff8111156147aa576147a96139bc565b5b6147b48254614587565b6147bf8282856146ed565b6000601f8311600181146147ee57600084156147dc578287015490505b6147e6858261475e565b865550614859565b601f1984166147fc876145ce565b9650614807866145ce565b60005b8281101561482f5784890154825560018201915060018501945060208101905061480a565b8683101561484c5784890154614848601f891682614740565b8355505b6001600288020188555050505b5050505050505b565b7f4e487b7100000000000000000000000000000000000000000000000000000000600052603160045260246000fd5b600061489c82613943565b9150600082036148af576148ae6144f5565b5b600182039050919050565b600060069050919050565b600081905092915050565b6000819050919050565b60006148e68383614202565b905092915050565b6000602082019050919050565b6000614906826148ba565b61491081856148c5565b935083602082028501614922856148d0565b8060005b8581101561495e578484038952815161493f85826148da565b945061494a836148ee565b925060208a01995050600181019050614926565b50829750879550505050505092915050565b6000604082019050818103600083015261498a81856148fb565b9050818103602083015261499e81846148fb565b90509392505050565b600081905092915050565b60006149bd826141bc565b6149c781856149a7565b93506149d78185602086016141d8565b80840191505092915050565b60006149ef82846149b2565b915081905092915050565b60008154614a0781614587565b614a1181866149a7565b94506001821660008114614a2c5760018114614a4157614a74565b60ff1983168652811515820286019350614a74565b614a4a856145ce565b60005b83811015614a6c57815481890152600182019150602081019050614a4d565b838801955050505b50505092915050565b6000614a8982846149fa565b915081905092915050565b6000614a9f82613943565b91507fffffffffffffffffffffffffffffffffffffffffffffffffffffffffffffffff8203614ad157614ad06144f5565b5b600182019050919050565b614ae5826141bc565b67ffffffffffffffff811115614afe57614afd6139bc565b5b614b088254614587565b614b138282856146ed565b600060209050601f831160018114614b465760008415614b34578287015190505b614b3e858261475e565b865550614ba6565b601f198416614b54866145ce565b60005b82811015614b7c57848901518255600182019150602085019450602081019050614b57565b86831015614b995784890151614b95601f891682614740565b8355505b6001600288020188555050505b505050505050565b50565b6000614bbe6000836149a7565b9150614bc982614bae565b600082019050919050565b6000614bdf82614bb1565b915081905091905056fea2646970667358221220ba14759cde28b067efb3637edcb2531aee72c759b30a844d017a4b292284adb264736f6c63430008110033",
  "linkReferences": {},
  "deployedLinkReferences": {}
}