{
  "_format": "hh-sol-artifact-1",
  "contractName": "SubjectAttribute",
  "sourceName": "contracts/SubjectAttribute.sol",
  "abi": [
    {
      "inputs": [],
      "stateMutability": "nonpayable",
      "type": "constructor"
    },
    {
      "anonymous": false,
      "inputs": [
        {
          "indexed": false,
          "internalType": "address",
          "name": "sub_addr",
          "type": "address"
        },
        {
          "indexed": false,
          "internalType": "string",
          "name": "manufacturer",
          "type": "string"
        }
      ],
      "name": "NewSubjectAdded",
      "type": "event"
    },
    {
      "anonymous": false,
      "inputs": [
        {
          "indexed": false,
          "internalType": "address",
          "name": "sub_addr",
          "type": "address"
        }
      ],
      "name": "SubjectChanged",
      "type": "event"
    },
    {
      "inputs": [
        {
          "internalType": "address",
          "name": "ev_man",
          "type": "address"
        }
      ],
      "name": "add_ev_man",
      "outputs": [],
      "stateMutability": "nonpayable",
      "type": "function"
    },
    {
      "inputs": [
        {
          "internalType": "address",
          "name": "sub_addr",
          "type": "address"
        },
        {
          "internalType": "string[6]",
          "name": "sub_arg",
          "type": "string[6]"
        }
      ],
      "name": "change_attribs",
      "outputs": [],
      "stateMutability": "nonpayable",
      "type": "function"
    },
    {
      "inputs": [
        {
          "internalType": "address",
          "name": "sub_addr",
          "type": "address"
        }
      ],
      "name": "check_bitmap",
      "outputs": [
        {
          "internalType": "bool",
          "name": "",
          "type": "bool"
        }
      ],
      "stateMutability": "view",
      "type": "function"
    },
    {
      "inputs": [
        {
          "internalType": "address",
          "name": "sub_addr",
          "type": "address"
        }
      ],
      "name": "delete_subject",
      "outputs": [],
      "stateMutability": "nonpayable",
      "type": "function"
    },
    {
      "inputs": [
        {
          "internalType": "address",
          "name": "sub_addr",
          "type": "address"
        }
      ],
      "name": "reactivate_subject",
      "outputs": [],
      "stateMutability": "nonpayable",
      "type": "function"
    },
    {
      "inputs": [
        {
          "internalType": "address",
          "name": "sub_addr",
          "type": "address"
        },
        {
          "internalType": "string[6]",
          "name": "sub_arg",
          "type": "string[6]"
        }
      ],
      "name": "subject_add",
      "outputs": [],
      "stateMutability": "nonpayable",
      "type": "function"
    },
    {
      "inputs": [
        {
          "internalType": "address",
          "name": "",
          "type": "address"
        }
      ],
      "name": "subjects",
      "outputs": [
        {
          "internalType": "enum SubjectAttribute.SubjectState",
          "name": "state",
          "type": "uint8"
        },
        {
          "internalType": "string",
          "name": "manufacturer",
          "type": "string"
        },
        {
          "internalType": "string",
          "name": "current_location",
          "type": "string"
        },
        {
          "internalType": "string",
          "name": "vehicle_type",
          "type": "string"
        },
        {
          "internalType": "string",
          "name": "owner_name",
          "type": "string"
        },
        {
          "internalType": "string",
          "name": "license_plate",
          "type": "string"
        },
        {
          "internalType": "string",
          "name": "energy_capacity",
          "type": "string"
        },
        {
          "internalType": "uint256",
          "name": "ToMFR",
          "type": "uint256"
        }
      ],
      "stateMutability": "view",
      "type": "function"
    },
    {
      "inputs": [
        {
          "internalType": "address",
          "name": "sub_addr",
          "type": "address"
        }
      ],
      "name": "suspend_subject",
      "outputs": [],
      "stateMutability": "nonpayable",
      "type": "function"
    },
    {
      "inputs": [
        {
          "internalType": "address",
          "name": "sub_addr",
          "type": "address"
        }
      ],
      "name": "update_tomfr",
      "outputs": [],
      "stateMutability": "nonpayable",
      "type": "function"
    }
  ],
  "bytecode": "0x608060405234801561001057600080fd5b50336000806101000a81548173ffffffffffffffffffffffffffffffffffffffff021916908373ffffffffffffffffffffffffffffffffffffffff160217905550600060018190555060006002600001819055506005600260010160006101000a81548160ff021916908360ff160217905550612242806100926000396000f3fe608060405234801561001057600080fd5b50600436106100935760003560e01c806366eefbb51161006657806366eefbb51461011c578063896e209614610138578063c9c5904b1461016f578063f1aa325e1461018b578063f277d5f6146101a757610093565b8063012310ff1461009857806302d23399146100b457806304b418e2146100d057806319ac49a714610100575b600080fd5b6100b260048036038101906100ad91906116ab565b6101c3565b005b6100ce60048036038101906100c991906116ab565b610281565b005b6100ea60048036038101906100e591906116ab565b6103c8565b6040516100f791906116f3565b60405180910390f35b61011a60048036038101906101159190611928565b610506565b005b610136600480360381019061013191906116ab565b610974565b005b610152600480360381019061014d91906116ab565b610a40565b604051610166989796959493929190611a93565b60405180910390f35b610189600480360381019061018491906116ab565b610dc5565b005b6101a560048036038101906101a09190611928565b610f0c565b005b6101c160048036038101906101bc91906116ab565b6113c6565b005b60008054906101000a900473ffffffffffffffffffffffffffffffffffffffff1673ffffffffffffffffffffffffffffffffffffffff163373ffffffffffffffffffffffffffffffffffffffff161461021b57600080fd5b6004819080600181540180825580915050600190039060005260206000200160009091909190916101000a81548173ffffffffffffffffffffffffffffffffffffffff021916908373ffffffffffffffffffffffffffffffffffffffff16021790555050565b60008054906101000a900473ffffffffffffffffffffffffffffffffffffffff1673ffffffffffffffffffffffffffffffffffffffff163373ffffffffffffffffffffffffffffffffffffffff16146102d957600080fd5b806003808111156102ed576102ec611984565b5b600560008373ffffffffffffffffffffffffffffffffffffffff1673ffffffffffffffffffffffffffffffffffffffff16815260200190815260200160002060000160009054906101000a900460ff16600381111561034f5761034e611984565b5b0361035957600080fd5b6001600560008473ffffffffffffffffffffffffffffffffffffffff1673ffffffffffffffffffffffffffffffffffffffff16815260200190815260200160002060000160006101000a81548160ff021916908360038111156103bf576103be611984565b5b02179055505050565b600080600260010160009054906101000a900460ff1660ff1611610421576040517f08c379a000000000000000000000000000000000000000000000000000000000815260040161041890611b87565b60405180910390fd5b60005b600260010160009054906101000a900460ff1660ff168110156104fb5760006101008483604051602001610459929190611c10565b6040516020818303038152906040528051906020012060001c61047c9190611c6b565b905061010081106104c2576040517f08c379a00000000000000000000000000000000000000000000000000000000081526004016104b990611ce8565b60405180910390fd5b6000816001901b905060008160026000015416036104e65760009350505050610501565b505080806104f390611d37565b915050610424565b50600190505b919050565b6000805b6004805490508160ff1610156105a65760048160ff168154811061053157610530611d7f565b5b9060005260206000200160009054906101000a900473ffffffffffffffffffffffffffffffffffffffff1673ffffffffffffffffffffffffffffffffffffffff163373ffffffffffffffffffffffffffffffffffffffff160361059357600191505b808061059e90611dbb565b91505061050a565b50806105b157600080fd5b600160008154809291906105c490611d37565b91905055506001600560008573ffffffffffffffffffffffffffffffffffffffff1673ffffffffffffffffffffffffffffffffffffffff16815260200190815260200160002060000160006101000a81548160ff0219169083600381111561062f5761062e611984565b5b02179055508160006006811061064857610647611d7f565b5b6020020151600560008573ffffffffffffffffffffffffffffffffffffffff1673ffffffffffffffffffffffffffffffffffffffff168152602001908152602001600020600101908161069b9190611ff0565b50816001600681106106b0576106af611d7f565b5b6020020151600560008573ffffffffffffffffffffffffffffffffffffffff1673ffffffffffffffffffffffffffffffffffffffff16815260200190815260200160002060020190816107039190611ff0565b508160026006811061071857610717611d7f565b5b6020020151600560008573ffffffffffffffffffffffffffffffffffffffff1673ffffffffffffffffffffffffffffffffffffffff168152602001908152602001600020600301908161076b9190611ff0565b50816003600681106107805761077f611d7f565b5b6020020151600560008573ffffffffffffffffffffffffffffffffffffffff1673ffffffffffffffffffffffffffffffffffffffff16815260200190815260200160002060040190816107d39190611ff0565b50816004600681106107e8576107e7611d7f565b5b6020020151600560008573ffffffffffffffffffffffffffffffffffffffff1673ffffffffffffffffffffffffffffffffffffffff168152602001908152602001600020600501908161083b9190611ff0565b50816005600681106108505761084f611d7f565b5b6020020151600560008573ffffffffffffffffffffffffffffffffffffffff1673ffffffffffffffffffffffffffffffffffffffff16815260200190815260200160002060060190816108a39190611ff0565b506000600560008573ffffffffffffffffffffffffffffffffffffffff1673ffffffffffffffffffffffffffffffffffffffff168152602001908152602001600020600701819055506108f58361150d565b7f1683cc50ac1a71a8f4dad75963c1d06c991028ac82a87fc59580114a45a7930a83600560008673ffffffffffffffffffffffffffffffffffffffff1673ffffffffffffffffffffffffffffffffffffffff168152602001908152602001600020600101604051610967929190612155565b60405180910390a1505050565b806001600381111561098957610988611984565b5b600560008373ffffffffffffffffffffffffffffffffffffffff1673ffffffffffffffffffffffffffffffffffffffff16815260200190815260200160002060000160009054906101000a900460ff1660038111156109eb576109ea611984565b5b146109f557600080fd5b42600560008473ffffffffffffffffffffffffffffffffffffffff1673ffffffffffffffffffffffffffffffffffffffff168152602001908152602001600020600701819055505050565b60056020528060005260406000206000915090508060000160009054906101000a900460ff1690806001018054610a7690611e13565b80601f0160208091040260200160405190810160405280929190818152602001828054610aa290611e13565b8015610aef5780601f10610ac457610100808354040283529160200191610aef565b820191906000526020600020905b815481529060010190602001808311610ad257829003601f168201915b505050505090806002018054610b0490611e13565b80601f0160208091040260200160405190810160405280929190818152602001828054610b3090611e13565b8015610b7d5780601f10610b5257610100808354040283529160200191610b7d565b820191906000526020600020905b815481529060010190602001808311610b6057829003601f168201915b505050505090806003018054610b9290611e13565b80601f0160208091040260200160405190810160405280929190818152602001828054610bbe90611e13565b8015610c0b5780601f10610be057610100808354040283529160200191610c0b565b820191906000526020600020905b815481529060010190602001808311610bee57829003601f168201915b505050505090806004018054610c2090611e13565b80601f0160208091040260200160405190810160405280929190818152602001828054610c4c90611e13565b8015610c995780601f10610c6e57610100808354040283529160200191610c99565b820191906000526020600020905b815481529060010190602001808311610c7c57829003601f168201915b505050505090806005018054610cae90611e13565b80601f0160208091040260200160405190810160405280929190818152602001828054610cda90611e13565b8015610d275780601f10610cfc57610100808354040283529160200191610d27565b820191906000526020600020905b815481529060010190602001808311610d0a57829003601f168201915b505050505090806006018054610d3c90611e13565b80601f0160208091040260200160405190810160405280929190818152602001828054610d6890611e13565b8015610db55780601f10610d8a57610100808354040283529160200191610db5565b820191906000526020600020905b815481529060010190602001808311610d9857829003601f168201915b5050505050908060070154905088565b60008054906101000a900473ffffffffffffffffffffffffffffffffffffffff1673ffffffffffffffffffffffffffffffffffffffff163373ffffffffffffffffffffffffffffffffffffffff1614610e1d57600080fd5b80600380811115610e3157610e30611984565b5b600560008373ffffffffffffffffffffffffffffffffffffffff1673ffffffffffffffffffffffffffffffffffffffff16815260200190815260200160002060000160009054906101000a900460ff166003811115610e9357610e92611984565b5b03610e9d57600080fd5b6003600560008473ffffffffffffffffffffffffffffffffffffffff1673ffffffffffffffffffffffffffffffffffffffff16815260200190815260200160002060000160006101000a81548160ff02191690836003811115610f0357610f02611984565b5b02179055505050565b6000805b6004805490508160ff161015610fac5760048160ff1681548110610f3757610f36611d7f565b5b9060005260206000200160009054906101000a900473ffffffffffffffffffffffffffffffffffffffff1673ffffffffffffffffffffffffffffffffffffffff163373ffffffffffffffffffffffffffffffffffffffff1603610f9957600191505b8080610fa490611dbb565b915050610f10565b5080610fb757600080fd5b8260016003811115610fcc57610fcb611984565b5b600560008373ffffffffffffffffffffffffffffffffffffffff1673ffffffffffffffffffffffffffffffffffffffff16815260200190815260200160002060000160009054906101000a900460ff16600381111561102e5761102d611984565b5b1461103857600080fd5b60008360006006811061104e5761104d611d7f565b5b6020020151905060008151146110c7578360006006811061107257611071611d7f565b5b6020020151600560008773ffffffffffffffffffffffffffffffffffffffff1673ffffffffffffffffffffffffffffffffffffffff16815260200190815260200160002060010190816110c59190611ff0565b505b836001600681106110db576110da611d7f565b5b60200201519050600081511461115457836001600681106110ff576110fe611d7f565b5b6020020151600560008773ffffffffffffffffffffffffffffffffffffffff1673ffffffffffffffffffffffffffffffffffffffff16815260200190815260200160002060020190816111529190611ff0565b505b8360026006811061116857611167611d7f565b5b6020020151905060008151146111e1578360026006811061118c5761118b611d7f565b5b6020020151600560008773ffffffffffffffffffffffffffffffffffffffff1673ffffffffffffffffffffffffffffffffffffffff16815260200190815260200160002060030190816111df9190611ff0565b505b836003600681106111f5576111f4611d7f565b5b60200201519050600081511461126e578360036006811061121957611218611d7f565b5b6020020151600560008773ffffffffffffffffffffffffffffffffffffffff1673ffffffffffffffffffffffffffffffffffffffff168152602001908152602001600020600401908161126c9190611ff0565b505b8360046006811061128257611281611d7f565b5b6020020151905060008151146112fb57836004600681106112a6576112a5611d7f565b5b6020020151600560008773ffffffffffffffffffffffffffffffffffffffff1673ffffffffffffffffffffffffffffffffffffffff16815260200190815260200160002060050190816112f99190611ff0565b505b8360056006811061130f5761130e611d7f565b5b602002015190506000815114611388578360056006811061133357611332611d7f565b5b6020020151600560008773ffffffffffffffffffffffffffffffffffffffff1673ffffffffffffffffffffffffffffffffffffffff16815260200190815260200160002060060190816113869190611ff0565b505b7f644798de72c3890447d568c96ae8781e30dee9fc66f7e538aa73604943fd05c5856040516113b79190612185565b60405180910390a15050505050565b60008054906101000a900473ffffffffffffffffffffffffffffffffffffffff1673ffffffffffffffffffffffffffffffffffffffff163373ffffffffffffffffffffffffffffffffffffffff161461141e57600080fd5b8060038081111561143257611431611984565b5b600560008373ffffffffffffffffffffffffffffffffffffffff1673ffffffffffffffffffffffffffffffffffffffff16815260200190815260200160002060000160009054906101000a900460ff16600381111561149457611493611984565b5b0361149e57600080fd5b6002600560008473ffffffffffffffffffffffffffffffffffffffff1673ffffffffffffffffffffffffffffffffffffffff16815260200190815260200160002060000160006101000a81548160ff0219169083600381111561150457611503611984565b5b02179055505050565b6000600260010160009054906101000a900460ff1660ff1611611565576040517f08c379a000000000000000000000000000000000000000000000000000000000815260040161155c906121ec565b60405180910390fd5b60005b600260010160009054906101000a900460ff1660ff16811015611635576000610100838360405160200161159d929190611c10565b6040516020818303038152906040528051906020012060001c6115c09190611c6b565b90506101008110611606576040517f08c379a00000000000000000000000000000000000000000000000000000000081526004016115fd90611ce8565b60405180910390fd5b6000816001901b905080600260000154176002600001819055505050808061162d90611d37565b915050611568565b5050565b6000604051905090565b600080fd5b600080fd5b600073ffffffffffffffffffffffffffffffffffffffff82169050919050565b60006116788261164d565b9050919050565b6116888161166d565b811461169357600080fd5b50565b6000813590506116a58161167f565b92915050565b6000602082840312156116c1576116c0611643565b5b60006116cf84828501611696565b91505092915050565b60008115159050919050565b6116ed816116d8565b82525050565b600060208201905061170860008301846116e4565b92915050565b600080fd5b6000601f19601f8301169050919050565b7f4e487b7100000000000000000000000000000000000000000000000000000000600052604160045260246000fd5b61175c82611713565b810181811067ffffffffffffffff8211171561177b5761177a611724565b5b80604052505050565b600061178e611639565b905061179a8282611753565b919050565b600067ffffffffffffffff8211156117ba576117b9611724565b5b602082029050919050565b600080fd5b600080fd5b600067ffffffffffffffff8211156117ea576117e9611724565b5b6117f382611713565b9050602081019050919050565b82818337600083830152505050565b600061182261181d846117cf565b611784565b90508281526020810184848401111561183e5761183d6117ca565b5b611849848285611800565b509392505050565b600082601f8301126118665761186561170e565b5b813561187684826020860161180f565b91505092915050565b600061189261188d8461179f565b611784565b905080602084028301858111156118ac576118ab6117c5565b5b835b818110156118f357803567ffffffffffffffff8111156118d1576118d061170e565b5b8086016118de8982611851565b855260208501945050506020810190506118ae565b5050509392505050565b600082601f8301126119125761191161170e565b5b600661191f84828561187f565b91505092915050565b6000806040838503121561193f5761193e611643565b5b600061194d85828601611696565b925050602083013567ffffffffffffffff81111561196e5761196d611648565b5b61197a858286016118fd565b9150509250929050565b7f4e487b7100000000000000000000000000000000000000000000000000000000600052602160045260246000fd5b600481106119c4576119c3611984565b5b50565b60008190506119d5826119b3565b919050565b60006119e5826119c7565b9050919050565b6119f5816119da565b82525050565b600081519050919050565b600082825260208201905092915050565b60005b83811015611a35578082015181840152602081019050611a1a565b60008484015250505050565b6000611a4c826119fb565b611a568185611a06565b9350611a66818560208601611a17565b611a6f81611713565b840191505092915050565b6000819050919050565b611a8d81611a7a565b82525050565b600061010082019050611aa9600083018b6119ec565b8181036020830152611abb818a611a41565b90508181036040830152611acf8189611a41565b90508181036060830152611ae38188611a41565b90508181036080830152611af78187611a41565b905081810360a0830152611b0b8186611a41565b905081810360c0830152611b1f8185611a41565b9050611b2e60e0830184611a84565b9998505050505050505050565b7f4861736820636f756e742063616e6e6f74206265207a65726f00000000000000600082015250565b6000611b71601983611a06565b9150611b7c82611b3b565b602082019050919050565b60006020820190508181036000830152611ba081611b64565b9050919050565b60008160601b9050919050565b6000611bbf82611ba7565b9050919050565b6000611bd182611bb4565b9050919050565b611be9611be48261166d565b611bc6565b82525050565b6000819050919050565b611c0a611c0582611a7a565b611bef565b82525050565b6000611c1c8285611bd8565b601482019150611c2c8284611bf9565b6020820191508190509392505050565b7f4e487b7100000000000000000000000000000000000000000000000000000000600052601260045260246000fd5b6000611c7682611a7a565b9150611c8183611a7a565b925082611c9157611c90611c3c565b5b828206905092915050565b7f4f766572666c6f77204572726f72210000000000000000000000000000000000600082015250565b6000611cd2600f83611a06565b9150611cdd82611c9c565b602082019050919050565b60006020820190508181036000830152611d0181611cc5565b9050919050565b7f4e487b7100000000000000000000000000000000000000000000000000000000600052601160045260246000fd5b6000611d4282611a7a565b91507fffffffffffffffffffffffffffffffffffffffffffffffffffffffffffffffff8203611d7457611d73611d08565b5b600182019050919050565b7f4e487b7100000000000000000000000000000000000000000000000000000000600052603260045260246000fd5b600060ff82169050919050565b6000611dc682611dae565b915060ff8203611dd957611dd8611d08565b5b600182019050919050565b7f4e487b7100000000000000000000000000000000000000000000000000000000600052602260045260246000fd5b60006002820490506001821680611e2b57607f821691505b602082108103611e3e57611e3d611de4565b5b50919050565b60008190508160005260206000209050919050565b60006020601f8301049050919050565b600082821b905092915050565b600060088302611ea67fffffffffffffffffffffffffffffffffffffffffffffffffffffffffffffffff82611e69565b611eb08683611e69565b95508019841693508086168417925050509392505050565b6000819050919050565b6000611eed611ee8611ee384611a7a565b611ec8565b611a7a565b9050919050565b6000819050919050565b611f0783611ed2565b611f1b611f1382611ef4565b848454611e76565b825550505050565b600090565b611f30611f23565b611f3b818484611efe565b505050565b5b81811015611f5f57611f54600082611f28565b600181019050611f41565b5050565b601f821115611fa457611f7581611e44565b611f7e84611e59565b81016020851015611f8d578190505b611fa1611f9985611e59565b830182611f40565b50505b505050565b600082821c905092915050565b6000611fc760001984600802611fa9565b1980831691505092915050565b6000611fe08383611fb6565b9150826002028217905092915050565b611ff9826119fb565b67ffffffffffffffff81111561201257612011611724565b5b61201c8254611e13565b612027828285611f63565b600060209050601f83116001811461205a5760008415612048578287015190505b6120528582611fd4565b8655506120ba565b601f19841661206886611e44565b60005b828110156120905784890151825560018201915060208501945060208101905061206b565b868310156120ad57848901516120a9601f891682611fb6565b8355505b6001600288020188555050505b505050505050565b6120cb8161166d565b82525050565b600081546120de81611e13565b6120e88186611a06565b9450600182166000811461210357600181146121195761214c565b60ff19831686528115156020028601935061214c565b61212285611e44565b60005b8381101561214457815481890152600182019150602081019050612125565b808801955050505b50505092915050565b600060408201905061216a60008301856120c2565b818103602083015261217c81846120d1565b90509392505050565b600060208201905061219a60008301846120c2565b92915050565b7f4861736820636f756e742063616e6e6f74206265207a65726f21000000000000600082015250565b60006121d6601a83611a06565b91506121e1826121a0565b602082019050919050565b60006020820190508181036000830152612205816121c9565b905091905056fea26469706673582212207aad9def1de6687345ae77382ff28486b6dcc8056bfb94b3ab84e9a4dfbcbb2a64736f6c63430008110033",
  "linkReferences": {},
  "deployedLinkReferences": {}
}