{
  "_format": "hh-sol-artifact-1",
  "contractName": "AccessControl",
  "sourceName": "contracts/AccessControl.sol",
  "abi": [
    {
      "inputs": [
        {
          "internalType": "address",
          "name": "sub_con",
          "type": "address"
        },
        {
          "internalType": "address",
          "name": "obj_con",
          "type": "address"
        },
        {
          "internalType": "address",
          "name": "pol_con",
          "type": "address"
        },
        {
          "internalType": "address",
          "name": "tok_con",
          "type": "address"
        }
      ],
      "stateMutability": "nonpayable",
      "type": "constructor"
    },
    {
      "anonymous": false,
      "inputs": [
        {
          "indexed": false,
          "internalType": "address",
          "name": "sub_addr",
          "type": "address"
        },
        {
          "indexed": false,
          "internalType": "address",
          "name": "obj_addr",
          "type": "address"
        },
        {
          "indexed": false,
          "internalType": "uint8",
          "name": "action",
          "type": "uint8"
        },
        {
          "indexed": false,
          "internalType": "string",
          "name": "message",
          "type": "string"
        }
      ],
      "name": "AccessDenied",
      "type": "event"
    },
    {
      "anonymous": false,
      "inputs": [
        {
          "indexed": false,
          "internalType": "address",
          "name": "sub_addr",
          "type": "address"
        },
        {
          "indexed": false,
          "internalType": "address",
          "name": "obj_addr",
          "type": "address"
        },
        {
          "indexed": false,
          "internalType": "uint8",
          "name": "action",
          "type": "uint8"
        }
      ],
      "name": "AccessGranted",
      "type": "event"
    },
    {
      "anonymous": false,
      "inputs": [
        {
          "indexed": false,
          "internalType": "address",
          "name": "sub_addr",
          "type": "address"
        }
      ],
      "name": "AuthenticationFailure",
      "type": "event"
    },
    {
      "anonymous": false,
      "inputs": [
        {
          "indexed": false,
          "internalType": "address",
          "name": "sub_addr",
          "type": "address"
        }
      ],
      "name": "AuthenticationSuccess",
      "type": "event"
    },
    {
      "inputs": [
        {
          "internalType": "address",
          "name": "obj_addr",
          "type": "address"
        },
        {
          "internalType": "uint8",
          "name": "action",
          "type": "uint8"
        }
      ],
      "name": "access_control",
      "outputs": [],
      "stateMutability": "nonpayable",
      "type": "function"
    },
    {
      "inputs": [
        {
          "internalType": "address",
          "name": "pol",
          "type": "address"
        },
        {
          "internalType": "address",
          "name": "sub",
          "type": "address"
        },
        {
          "internalType": "address",
          "name": "obj",
          "type": "address"
        }
      ],
      "name": "change_address",
      "outputs": [],
      "stateMutability": "nonpayable",
      "type": "function"
    }
  ],
  "bytecode": "0x60806040523480156200001157600080fd5b50604051620018e2380380620018e28339818101604052810190620000379190620001ef565b33600460006101000a81548173ffffffffffffffffffffffffffffffffffffffff021916908373ffffffffffffffffffffffffffffffffffffffff160217905550816000806101000a81548173ffffffffffffffffffffffffffffffffffffffff021916908373ffffffffffffffffffffffffffffffffffffffff16021790555083600160006101000a81548173ffffffffffffffffffffffffffffffffffffffff021916908373ffffffffffffffffffffffffffffffffffffffff16021790555082600260006101000a81548173ffffffffffffffffffffffffffffffffffffffff021916908373ffffffffffffffffffffffffffffffffffffffff16021790555080600360006101000a81548173ffffffffffffffffffffffffffffffffffffffff021916908373ffffffffffffffffffffffffffffffffffffffff1602179055505050505062000261565b600080fd5b600073ffffffffffffffffffffffffffffffffffffffff82169050919050565b6000620001b7826200018a565b9050919050565b620001c981620001aa565b8114620001d557600080fd5b50565b600081519050620001e981620001be565b92915050565b600080600080608085870312156200020c576200020b62000185565b5b60006200021c87828801620001d8565b94505060206200022f87828801620001d8565b93505060406200024287828801620001d8565b92505060606200025587828801620001d8565b91505092959194509250565b61167180620002716000396000f3fe608060405234801561001057600080fd5b50600436106100365760003560e01c806374e072a21461003b5780637818055e14610057575b600080fd5b61005560048036038101906100509190610972565b610073565b005b610071600480360381019061006c91906109fe565b610194565b005b600460009054906101000a900473ffffffffffffffffffffffffffffffffffffffff1673ffffffffffffffffffffffffffffffffffffffff163373ffffffffffffffffffffffffffffffffffffffff16146100cd57600080fd5b826000806101000a81548173ffffffffffffffffffffffffffffffffffffffff021916908373ffffffffffffffffffffffffffffffffffffffff16021790555081600160006101000a81548173ffffffffffffffffffffffffffffffffffffffff021916908373ffffffffffffffffffffffffffffffffffffffff16021790555080600260006101000a81548173ffffffffffffffffffffffffffffffffffffffff021916908373ffffffffffffffffffffffffffffffffffffffff160217905550505050565b6000600160009054906101000a900473ffffffffffffffffffffffffffffffffffffffff1690508073ffffffffffffffffffffffffffffffffffffffff166304b418e2336040518263ffffffff1660e01b81526004016101f49190610a4d565b602060405180830381865afa158015610211573d6000803e3d6000fd5b505050506040513d601f19601f820116820180604052508101906102359190610aa0565b6102b1577f2c07c1a3416611972da5c28a4a7e1e80834065023ba6ce36a5b76a3025b9ad6133848460405161026c93929190610b39565b60405180910390a17f268bbef50f8b98dca257690f22cea791ecfb3b1d90dd5c6a893de6a60fccb044336040516102a39190610a4d565b60405180910390a1506108c6565b7f595bb0203eb92b3e42a7053ab62ed609136d3a3ae2860521ba60a3e9607cf2b2336040516102e09190610a4d565b60405180910390a160006102f26108ca565b60008373ffffffffffffffffffffffffffffffffffffffff1663896e2096336040518263ffffffff1660e01b815260040161032d9190610a4d565b600060405180830381865afa15801561034a573d6000803e3d6000fd5b505050506040513d6000823e3d601f19601f820116820180604052508101906103739190610d3f565b896000018a6020018b6040018c6060018d6080018e60a001869e50879052879052879052879052879052879052879a5050505050505050506000600260009054906101000a900473ffffffffffffffffffffffffffffffffffffffff16905060006103dc6108ca565b8273ffffffffffffffffffffffffffffffffffffffff1663770285ae8a6040518263ffffffff1660e01b81526004016104159190610a4d565b600060405180830381865afa158015610432573d6000803e3d6000fd5b505050506040513d6000823e3d601f19601f8201168201806040525081019061045b9190610ec2565b8760000188602001896040018a6060018b6080018c60a0018690528690528690528690528690528690528698505050505050505060008060009054906101000a900473ffffffffffffffffffffffffffffffffffffffff16905060008173ffffffffffffffffffffffffffffffffffffffff1663b81d89eb6040518060c001604052808a6000015181526020018a6020015181526020018a6040015181526020018a6060015181526020018a6080015181526020018a60a001518152506040518060c0016040528087600001518152602001876020015181526020018760400151815260200187606001518152602001876080015181526020018760a001518152506040518363ffffffff1660e01b815260040161057a929190611117565b6000604051808303816000875af1158015610599573d6000803e3d6000fd5b505050506040513d6000823e3d601f19601f820116820180604052508101906105c29190611216565b905060008273ffffffffffffffffffffffffffffffffffffffff1663a77ee92d838d8a6040518463ffffffff1660e01b81526004016106039392919061132c565b602060405180830381865afa158015610620573d6000803e3d6000fd5b505050506040513d601f19601f82011682018060405250810190610644919061137f565b90508973ffffffffffffffffffffffffffffffffffffffff166366eefbb5336040518263ffffffff1660e01b815260040161067f9190610a4d565b600060405180830381600087803b15801561069957600080fd5b505af11580156106ad573d6000803e3d6000fd5b5050505060008160ff160361078f576000600360009054906101000a900473ffffffffffffffffffffffffffffffffffffffff1690508073ffffffffffffffffffffffffffffffffffffffff16636a627842336040518263ffffffff1660e01b815260040161071c9190610a4d565b600060405180830381600087803b15801561073657600080fd5b505af115801561074a573d6000803e3d6000fd5b505050507fc2b5e6f861f43611062b511ecb54443548e07a6d51239b90892bc2a90b83339e338e8e604051610781939291906113ac565b60405180910390a1506108bb565b60018160ff16036107da577f2c07c1a3416611972da5c28a4a7e1e80834065023ba6ce36a5b76a3025b9ad61338d8d6040516107cd9392919061142f565b60405180910390a16108ba565b60028160ff1603610825577f2c07c1a3416611972da5c28a4a7e1e80834065023ba6ce36a5b76a3025b9ad61338d8d604051610818939291906114c5565b60405180910390a16108b9565b60038160ff1603610870577f2c07c1a3416611972da5c28a4a7e1e80834065023ba6ce36a5b76a3025b9ad61338d8d6040516108639392919061155b565b60405180910390a16108b8565b60048160ff16036108b7577f2c07c1a3416611972da5c28a4a7e1e80834065023ba6ce36a5b76a3025b9ad61338d8d6040516108ae939291906115f1565b60405180910390a15b5b5b5b5b505050505050505050505b5050565b6040518060c001604052806060815260200160608152602001606081526020016060815260200160608152602001606081525090565b6000604051905090565b600080fd5b600080fd5b600073ffffffffffffffffffffffffffffffffffffffff82169050919050565b600061093f82610914565b9050919050565b61094f81610934565b811461095a57600080fd5b50565b60008135905061096c81610946565b92915050565b60008060006060848603121561098b5761098a61090a565b5b60006109998682870161095d565b93505060206109aa8682870161095d565b92505060406109bb8682870161095d565b9150509250925092565b600060ff82169050919050565b6109db816109c5565b81146109e657600080fd5b50565b6000813590506109f8816109d2565b92915050565b60008060408385031215610a1557610a1461090a565b5b6000610a238582860161095d565b9250506020610a34858286016109e9565b9150509250929050565b610a4781610934565b82525050565b6000602082019050610a626000830184610a3e565b92915050565b60008115159050919050565b610a7d81610a68565b8114610a8857600080fd5b50565b600081519050610a9a81610a74565b92915050565b600060208284031215610ab657610ab561090a565b5b6000610ac484828501610a8b565b91505092915050565b610ad6816109c5565b82525050565b600082825260208201905092915050565b7f5375626a656374204e6f7420466f756e64210000000000000000000000000000600082015250565b6000610b23601283610adc565b9150610b2e82610aed565b602082019050919050565b6000608082019050610b4e6000830186610a3e565b610b5b6020830185610a3e565b610b686040830184610acd565b8181036060830152610b7981610b16565b9050949350505050565b60048110610b9057600080fd5b50565b600081519050610ba281610b83565b92915050565b600080fd5b600080fd5b6000601f19601f8301169050919050565b7f4e487b7100000000000000000000000000000000000000000000000000000000600052604160045260246000fd5b610bfb82610bb2565b810181811067ffffffffffffffff82111715610c1a57610c19610bc3565b5b80604052505050565b6000610c2d610900565b9050610c398282610bf2565b919050565b600067ffffffffffffffff821115610c5957610c58610bc3565b5b610c6282610bb2565b9050602081019050919050565b60005b83811015610c8d578082015181840152602081019050610c72565b60008484015250505050565b6000610cac610ca784610c3e565b610c23565b905082815260208101848484011115610cc857610cc7610bad565b5b610cd3848285610c6f565b509392505050565b600082601f830112610cf057610cef610ba8565b5b8151610d00848260208601610c99565b91505092915050565b6000819050919050565b610d1c81610d09565b8114610d2757600080fd5b50565b600081519050610d3981610d13565b92915050565b600080600080600080600080610100898b031215610d6057610d5f61090a565b5b6000610d6e8b828c01610b93565b985050602089015167ffffffffffffffff811115610d8f57610d8e61090f565b5b610d9b8b828c01610cdb565b975050604089015167ffffffffffffffff811115610dbc57610dbb61090f565b5b610dc88b828c01610cdb565b965050606089015167ffffffffffffffff811115610de957610de861090f565b5b610df58b828c01610cdb565b955050608089015167ffffffffffffffff811115610e1657610e1561090f565b5b610e228b828c01610cdb565b94505060a089015167ffffffffffffffff811115610e4357610e4261090f565b5b610e4f8b828c01610cdb565b93505060c089015167ffffffffffffffff811115610e7057610e6f61090f565b5b610e7c8b828c01610cdb565b92505060e0610e8d8b828c01610d2a565b9150509295985092959890939650565b60048110610eaa57600080fd5b50565b600081519050610ebc81610e9d565b92915050565b600080600080600080600060e0888a031215610ee157610ee061090a565b5b6000610eef8a828b01610ead565b975050602088015167ffffffffffffffff811115610f1057610f0f61090f565b5b610f1c8a828b01610cdb565b965050604088015167ffffffffffffffff811115610f3d57610f3c61090f565b5b610f498a828b01610cdb565b955050606088015167ffffffffffffffff811115610f6a57610f6961090f565b5b610f768a828b01610cdb565b945050608088015167ffffffffffffffff811115610f9757610f9661090f565b5b610fa38a828b01610cdb565b93505060a088015167ffffffffffffffff811115610fc457610fc361090f565b5b610fd08a828b01610cdb565b92505060c088015167ffffffffffffffff811115610ff157610ff061090f565b5b610ffd8a828b01610cdb565b91505092959891949750929550565b600060069050919050565b600081905092915050565b6000819050919050565b600081519050919050565b600082825260208201905092915050565b60006110538261102c565b61105d8185611037565b935061106d818560208601610c6f565b61107681610bb2565b840191505092915050565b600061108d8383611048565b905092915050565b6000602082019050919050565b60006110ad8261100c565b6110b78185611017565b9350836020820285016110c985611022565b8060005b8581101561110557848403895281516110e68582611081565b94506110f183611095565b925060208a019950506001810190506110cd565b50829750879550505050505092915050565b6000604082019050818103600083015261113181856110a2565b9050818103602083015261114581846110a2565b90509392505050565b600067ffffffffffffffff82111561116957611168610bc3565b5b602082029050602081019050919050565b600080fd5b600061119261118d8461114e565b610c23565b905080838252602082019050602084028301858111156111b5576111b461117a565b5b835b818110156111de57806111ca8882610d2a565b8452602084019350506020810190506111b7565b5050509392505050565b600082601f8301126111fd576111fc610ba8565b5b815161120d84826020860161117f565b91505092915050565b60006020828403121561122c5761122b61090a565b5b600082015167ffffffffffffffff81111561124a5761124961090f565b5b611256848285016111e8565b91505092915050565b600081519050919050565b600082825260208201905092915050565b6000819050602082019050919050565b61129481610d09565b82525050565b60006112a6838361128b565b60208301905092915050565b6000602082019050919050565b60006112ca8261125f565b6112d4818561126a565b93506112df8361127b565b8060005b838110156113105781516112f7888261129a565b9750611302836112b2565b9250506001810190506112e3565b5085935050505092915050565b61132681610d09565b82525050565b6000606082019050818103600083015261134681866112bf565b90506113556020830185610acd565b611362604083018461131d565b949350505050565b600081519050611379816109d2565b92915050565b6000602082840312156113955761139461090a565b5b60006113a38482850161136a565b91505092915050565b60006060820190506113c16000830186610a3e565b6113ce6020830185610a3e565b6113db6040830184610acd565b949350505050565b7f4e6f204d6174636820506f6c6963790000000000000000000000000000000000600082015250565b6000611419600f83610adc565b9150611424826113e3565b602082019050919050565b60006080820190506114446000830186610a3e565b6114516020830185610a3e565b61145e6040830184610acd565b818103606083015261146f8161140c565b9050949350505050565b7f5065726d697373696f6e20526573747269637465640000000000000000000000600082015250565b60006114af601583610adc565b91506114ba82611479565b602082019050919050565b60006080820190506114da6000830186610a3e565b6114e76020830185610a3e565b6114f46040830184610acd565b8181036060830152611505816114a2565b9050949350505050565b7f4163636573732054696d65204f75740000000000000000000000000000000000600082015250565b6000611545600f83610adc565b91506115508261150f565b602082019050919050565b60006080820190506115706000830186610a3e565b61157d6020830185610a3e565b61158a6040830184610acd565b818103606083015261159b81611538565b9050949350505050565b7f546f6f204672657175656e742052657175657374000000000000000000000000600082015250565b60006115db601483610adc565b91506115e6826115a5565b602082019050919050565b60006080820190506116066000830186610a3e565b6116136020830185610a3e565b6116206040830184610acd565b8181036060830152611631816115ce565b905094935050505056fea2646970667358221220cc41b2b6a2fe9ad8d651fbab3286a06046de1161ecb2146b2b167b1bbffdf3f864736f6c63430008110033",
  "linkReferences": {},
  "deployedLinkReferences": {}
}