{
  "_format": "hh-sol-artifact-1",
  "contractName": "ObjectAttribute",
  "sourceName": "contracts/ObjectAttribute.sol",
  "abi": [
    {
      "inputs": [],
      "stateMutability": "nonpayable",
      "type": "constructor"
    },
    {
      "anonymous": false,
      "inputs": [
        {
          "indexed": false,
          "internalType": "address",
          "name": "obj_addr",
          "type": "address"
        },
        {
          "indexed": false,
          "internalType": "string",
          "name": "location",
          "type": "string"
        }
      ],
      "name": "NewObjectAdded",
      "type": "event"
    },
    {
      "anonymous": false,
      "inputs": [
        {
          "indexed": false,
          "internalType": "address",
          "name": "obj_addr",
          "type": "address"
        }
      ],
      "name": "ObjectChanged",
      "type": "event"
    },
    {
      "inputs": [
        {
          "internalType": "address",
          "name": "cs_lead",
          "type": "address"
        }
      ],
      "name": "add_cs_leader",
      "outputs": [],
      "stateMutability": "nonpayable",
      "type": "function"
    },
    {
      "inputs": [
        {
          "internalType": "address",
          "name": "obj_addr",
          "type": "address"
        },
        {
          "internalType": "string[6]",
          "name": "obj_arg",
          "type": "string[6]"
        }
      ],
      "name": "change_attribs",
      "outputs": [],
      "stateMutability": "nonpayable",
      "type": "function"
    },
    {
      "inputs": [
        {
          "internalType": "address",
          "name": "obj_addr",
          "type": "address"
        }
      ],
      "name": "delete_object",
      "outputs": [],
      "stateMutability": "nonpayable",
      "type": "function"
    },
    {
      "inputs": [
        {
          "internalType": "address",
          "name": "obj_addr",
          "type": "address"
        },
        {
          "internalType": "string[6]",
          "name": "obj_arg",
          "type": "string[6]"
        }
      ],
      "name": "object_add",
      "outputs": [],
      "stateMutability": "nonpayable",
      "type": "function"
    },
    {
      "inputs": [
        {
          "internalType": "address",
          "name": "",
          "type": "address"
        }
      ],
      "name": "objects",
      "outputs": [
        {
          "internalType": "enum ObjectAttribute.ObjectState",
          "name": "state",
          "type": "uint8"
        },
        {
          "internalType": "string",
          "name": "plug_type",
          "type": "string"
        },
        {
          "internalType": "string",
          "name": "location",
          "type": "string"
        },
        {
          "internalType": "string",
          "name": "pricing_model",
          "type": "string"
        },
        {
          "internalType": "string",
          "name": "num_charging_outlets",
          "type": "string"
        },
        {
          "internalType": "string",
          "name": "charging_power",
          "type": "string"
        },
        {
          "internalType": "string",
          "name": "fast_charging",
          "type": "string"
        }
      ],
      "stateMutability": "view",
      "type": "function"
    },
    {
      "inputs": [
        {
          "internalType": "address",
          "name": "obj_addr",
          "type": "address"
        }
      ],
      "name": "reactivate_object",
      "outputs": [],
      "stateMutability": "nonpayable",
      "type": "function"
    },
    {
      "inputs": [
        {
          "internalType": "address",
          "name": "obj_addr",
          "type": "address"
        }
      ],
      "name": "suspend_object",
      "outputs": [],
      "stateMutability": "nonpayable",
      "type": "function"
    }
  ],
  "bytecode": "0x608060405234801561001057600080fd5b50336000806101000a81548173ffffffffffffffffffffffffffffffffffffffff021916908373ffffffffffffffffffffffffffffffffffffffff1602179055506000600181905550611bc4806100686000396000f3fe608060405234801561001057600080fd5b506004361061007d5760003560e01c80637bf8c8db1161005b5780637bf8c8db146100f0578063979be5251461010c578063c08df27b14610128578063f1aa325e146101445761007d565b80635ddd16df14610082578063770285ae1461009e57806377c677fc146100d4575b600080fd5b61009c600480360381019061009791906112ba565b610160565b005b6100b860048036038101906100b391906112ba565b6102a7565b6040516100cb97969594939291906113ee565b60405180910390f35b6100ee60048036038101906100e99190611690565b610626565b005b61010a600480360381019061010591906112ba565b610a43565b005b610126600480360381019061012191906112ba565b610b01565b005b610142600480360381019061013d91906112ba565b610c48565b005b61015e60048036038101906101599190611690565b610d8e565b005b60008054906101000a900473ffffffffffffffffffffffffffffffffffffffff1673ffffffffffffffffffffffffffffffffffffffff163373ffffffffffffffffffffffffffffffffffffffff16146101b857600080fd5b806003808111156101cc576101cb6112e7565b5b600360008373ffffffffffffffffffffffffffffffffffffffff1673ffffffffffffffffffffffffffffffffffffffff16815260200190815260200160002060000160009054906101000a900460ff16600381111561022e5761022d6112e7565b5b0361023857600080fd5b6001600360008473ffffffffffffffffffffffffffffffffffffffff1673ffffffffffffffffffffffffffffffffffffffff16815260200190815260200160002060000160006101000a81548160ff0219169083600381111561029e5761029d6112e7565b5b02179055505050565b60036020528060005260406000206000915090508060000160009054906101000a900460ff16908060010180546102dd9061171b565b80601f01602080910402602001604051908101604052809291908181526020018280546103099061171b565b80156103565780601f1061032b57610100808354040283529160200191610356565b820191906000526020600020905b81548152906001019060200180831161033957829003601f168201915b50505050509080600201805461036b9061171b565b80601f01602080910402602001604051908101604052809291908181526020018280546103979061171b565b80156103e45780601f106103b9576101008083540402835291602001916103e4565b820191906000526020600020905b8154815290600101906020018083116103c757829003601f168201915b5050505050908060030180546103f99061171b565b80601f01602080910402602001604051908101604052809291908181526020018280546104259061171b565b80156104725780601f1061044757610100808354040283529160200191610472565b820191906000526020600020905b81548152906001019060200180831161045557829003601f168201915b5050505050908060040180546104879061171b565b80601f01602080910402602001604051908101604052809291908181526020018280546104b39061171b565b80156105005780601f106104d557610100808354040283529160200191610500565b820191906000526020600020905b8154815290600101906020018083116104e357829003601f168201915b5050505050908060050180546105159061171b565b80601f01602080910402602001604051908101604052809291908181526020018280546105419061171b565b801561058e5780601f106105635761010080835404028352916020019161058e565b820191906000526020600020905b81548152906001019060200180831161057157829003601f168201915b5050505050908060060180546105a39061171b565b80601f01602080910402602001604051908101604052809291908181526020018280546105cf9061171b565b801561061c5780601f106105f15761010080835404028352916020019161061c565b820191906000526020600020905b8154815290600101906020018083116105ff57829003601f168201915b5050505050905087565b6000805b6002805490508160ff1610156106c65760028160ff16815481106106515761065061174c565b5b9060005260206000200160009054906101000a900473ffffffffffffffffffffffffffffffffffffffff1673ffffffffffffffffffffffffffffffffffffffff163373ffffffffffffffffffffffffffffffffffffffff16036106b357600191505b80806106be906117b7565b91505061062a565b50806106d157600080fd5b600160008154809291906106e4906117ea565b91905055506001600360008573ffffffffffffffffffffffffffffffffffffffff1673ffffffffffffffffffffffffffffffffffffffff16815260200190815260200160002060000160006101000a81548160ff0219169083600381111561074f5761074e6112e7565b5b0217905550816000600681106107685761076761174c565b5b6020020151600360008573ffffffffffffffffffffffffffffffffffffffff1673ffffffffffffffffffffffffffffffffffffffff16815260200190815260200160002060010190816107bb91906119de565b50816001600681106107d0576107cf61174c565b5b6020020151600360008573ffffffffffffffffffffffffffffffffffffffff1673ffffffffffffffffffffffffffffffffffffffff168152602001908152602001600020600201908161082391906119de565b50816002600681106108385761083761174c565b5b6020020151600360008573ffffffffffffffffffffffffffffffffffffffff1673ffffffffffffffffffffffffffffffffffffffff168152602001908152602001600020600301908161088b91906119de565b50816003600681106108a05761089f61174c565b5b6020020151600360008573ffffffffffffffffffffffffffffffffffffffff1673ffffffffffffffffffffffffffffffffffffffff16815260200190815260200160002060040190816108f391906119de565b50816004600681106109085761090761174c565b5b6020020151600360008573ffffffffffffffffffffffffffffffffffffffff1673ffffffffffffffffffffffffffffffffffffffff168152602001908152602001600020600501908161095b91906119de565b50816005600681106109705761096f61174c565b5b6020020151600360008573ffffffffffffffffffffffffffffffffffffffff1673ffffffffffffffffffffffffffffffffffffffff16815260200190815260200160002060060190816109c391906119de565b507fd7b10ab0017531ed21de18ef1e05292bd4b21c621fe18ee7ccb5c17bec4c8b8683600360008673ffffffffffffffffffffffffffffffffffffffff1673ffffffffffffffffffffffffffffffffffffffff168152602001908152602001600020600201604051610a36929190611b43565b60405180910390a1505050565b60008054906101000a900473ffffffffffffffffffffffffffffffffffffffff1673ffffffffffffffffffffffffffffffffffffffff163373ffffffffffffffffffffffffffffffffffffffff1614610a9b57600080fd5b6002819080600181540180825580915050600190039060005260206000200160009091909190916101000a81548173ffffffffffffffffffffffffffffffffffffffff021916908373ffffffffffffffffffffffffffffffffffffffff16021790555050565b60008054906101000a900473ffffffffffffffffffffffffffffffffffffffff1673ffffffffffffffffffffffffffffffffffffffff163373ffffffffffffffffffffffffffffffffffffffff1614610b5957600080fd5b80600380811115610b6d57610b6c6112e7565b5b600360008373ffffffffffffffffffffffffffffffffffffffff1673ffffffffffffffffffffffffffffffffffffffff16815260200190815260200160002060000160009054906101000a900460ff166003811115610bcf57610bce6112e7565b5b03610bd957600080fd5b6002600360008473ffffffffffffffffffffffffffffffffffffffff1673ffffffffffffffffffffffffffffffffffffffff16815260200190815260200160002060000160006101000a81548160ff02191690836003811115610c3f57610c3e6112e7565b5b02179055505050565b60008054906101000a900473ffffffffffffffffffffffffffffffffffffffff1673ffffffffffffffffffffffffffffffffffffffff163373ffffffffffffffffffffffffffffffffffffffff1614610ca057600080fd5b80600380811115610cb457610cb36112e7565b5b600360008373ffffffffffffffffffffffffffffffffffffffff1673ffffffffffffffffffffffffffffffffffffffff16815260200190815260200160002060000160009054906101000a900460ff166003811115610d1657610d156112e7565b5b03610d2057600080fd5b60038060008473ffffffffffffffffffffffffffffffffffffffff1673ffffffffffffffffffffffffffffffffffffffff16815260200190815260200160002060000160006101000a81548160ff02191690836003811115610d8557610d846112e7565b5b02179055505050565b6000805b6002805490508160ff161015610e2e5760028160ff1681548110610db957610db861174c565b5b9060005260206000200160009054906101000a900473ffffffffffffffffffffffffffffffffffffffff1673ffffffffffffffffffffffffffffffffffffffff163373ffffffffffffffffffffffffffffffffffffffff1603610e1b57600191505b8080610e26906117b7565b915050610d92565b5080610e3957600080fd5b8260016003811115610e4e57610e4d6112e7565b5b600360008373ffffffffffffffffffffffffffffffffffffffff1673ffffffffffffffffffffffffffffffffffffffff16815260200190815260200160002060000160009054906101000a900460ff166003811115610eb057610eaf6112e7565b5b14610eba57600080fd5b600083600060068110610ed057610ecf61174c565b5b602002015190506000815114610f495783600060068110610ef457610ef361174c565b5b6020020151600360008773ffffffffffffffffffffffffffffffffffffffff1673ffffffffffffffffffffffffffffffffffffffff1681526020019081526020016000206001019081610f4791906119de565b505b83600160068110610f5d57610f5c61174c565b5b602002015190506000815114610fd65783600160068110610f8157610f8061174c565b5b6020020151600360008773ffffffffffffffffffffffffffffffffffffffff1673ffffffffffffffffffffffffffffffffffffffff1681526020019081526020016000206002019081610fd491906119de565b505b83600260068110610fea57610fe961174c565b5b602002015190506000815114611063578360026006811061100e5761100d61174c565b5b6020020151600360008773ffffffffffffffffffffffffffffffffffffffff1673ffffffffffffffffffffffffffffffffffffffff168152602001908152602001600020600301908161106191906119de565b505b836003600681106110775761107661174c565b5b6020020151905060008151146110f0578360036006811061109b5761109a61174c565b5b6020020151600360008773ffffffffffffffffffffffffffffffffffffffff1673ffffffffffffffffffffffffffffffffffffffff16815260200190815260200160002060040190816110ee91906119de565b505b836004600681106111045761110361174c565b5b60200201519050600081511461117d57836004600681106111285761112761174c565b5b6020020151600360008773ffffffffffffffffffffffffffffffffffffffff1673ffffffffffffffffffffffffffffffffffffffff168152602001908152602001600020600501908161117b91906119de565b505b836005600681106111915761119061174c565b5b60200201519050600081511461120a57836005600681106111b5576111b461174c565b5b6020020151600360008773ffffffffffffffffffffffffffffffffffffffff1673ffffffffffffffffffffffffffffffffffffffff168152602001908152602001600020600601908161120891906119de565b505b7fb73ffc60e1487f2a2e31ec7d97c923faaaed179e74fee1581e677ac765a8c46c856040516112399190611b73565b60405180910390a15050505050565b6000604051905090565b600080fd5b600080fd5b600073ffffffffffffffffffffffffffffffffffffffff82169050919050565b60006112878261125c565b9050919050565b6112978161127c565b81146112a257600080fd5b50565b6000813590506112b48161128e565b92915050565b6000602082840312156112d0576112cf611252565b5b60006112de848285016112a5565b91505092915050565b7f4e487b7100000000000000000000000000000000000000000000000000000000600052602160045260246000fd5b60048110611327576113266112e7565b5b50565b600081905061133882611316565b919050565b60006113488261132a565b9050919050565b6113588161133d565b82525050565b600081519050919050565b600082825260208201905092915050565b60005b8381101561139857808201518184015260208101905061137d565b60008484015250505050565b6000601f19601f8301169050919050565b60006113c08261135e565b6113ca8185611369565b93506113da81856020860161137a565b6113e3816113a4565b840191505092915050565b600060e082019050611403600083018a61134f565b818103602083015261141581896113b5565b9050818103604083015261142981886113b5565b9050818103606083015261143d81876113b5565b9050818103608083015261145181866113b5565b905081810360a083015261146581856113b5565b905081810360c083015261147981846113b5565b905098975050505050505050565b600080fd5b7f4e487b7100000000000000000000000000000000000000000000000000000000600052604160045260246000fd5b6114c4826113a4565b810181811067ffffffffffffffff821117156114e3576114e261148c565b5b80604052505050565b60006114f6611248565b905061150282826114bb565b919050565b600067ffffffffffffffff8211156115225761152161148c565b5b602082029050919050565b600080fd5b600080fd5b600067ffffffffffffffff8211156115525761155161148c565b5b61155b826113a4565b9050602081019050919050565b82818337600083830152505050565b600061158a61158584611537565b6114ec565b9050828152602081018484840111156115a6576115a5611532565b5b6115b1848285611568565b509392505050565b600082601f8301126115ce576115cd611487565b5b81356115de848260208601611577565b91505092915050565b60006115fa6115f584611507565b6114ec565b905080602084028301858111156116145761161361152d565b5b835b8181101561165b57803567ffffffffffffffff81111561163957611638611487565b5b80860161164689826115b9565b85526020850194505050602081019050611616565b5050509392505050565b600082601f83011261167a57611679611487565b5b60066116878482856115e7565b91505092915050565b600080604083850312156116a7576116a6611252565b5b60006116b5858286016112a5565b925050602083013567ffffffffffffffff8111156116d6576116d5611257565b5b6116e285828601611665565b9150509250929050565b7f4e487b7100000000000000000000000000000000000000000000000000000000600052602260045260246000fd5b6000600282049050600182168061173357607f821691505b602082108103611746576117456116ec565b5b50919050565b7f4e487b7100000000000000000000000000000000000000000000000000000000600052603260045260246000fd5b7f4e487b7100000000000000000000000000000000000000000000000000000000600052601160045260246000fd5b600060ff82169050919050565b60006117c2826117aa565b915060ff82036117d5576117d461177b565b5b600182019050919050565b6000819050919050565b60006117f5826117e0565b91507fffffffffffffffffffffffffffffffffffffffffffffffffffffffffffffffff82036118275761182661177b565b5b600182019050919050565b60008190508160005260206000209050919050565b60006020601f8301049050919050565b600082821b905092915050565b6000600883026118947fffffffffffffffffffffffffffffffffffffffffffffffffffffffffffffffff82611857565b61189e8683611857565b95508019841693508086168417925050509392505050565b6000819050919050565b60006118db6118d66118d1846117e0565b6118b6565b6117e0565b9050919050565b6000819050919050565b6118f5836118c0565b611909611901826118e2565b848454611864565b825550505050565b600090565b61191e611911565b6119298184846118ec565b505050565b5b8181101561194d57611942600082611916565b60018101905061192f565b5050565b601f8211156119925761196381611832565b61196c84611847565b8101602085101561197b578190505b61198f61198785611847565b83018261192e565b50505b505050565b600082821c905092915050565b60006119b560001984600802611997565b1980831691505092915050565b60006119ce83836119a4565b9150826002028217905092915050565b6119e78261135e565b67ffffffffffffffff811115611a00576119ff61148c565b5b611a0a825461171b565b611a15828285611951565b600060209050601f831160018114611a485760008415611a36578287015190505b611a4085826119c2565b865550611aa8565b601f198416611a5686611832565b60005b82811015611a7e57848901518255600182019150602085019450602081019050611a59565b86831015611a9b5784890151611a97601f8916826119a4565b8355505b6001600288020188555050505b505050505050565b611ab98161127c565b82525050565b60008154611acc8161171b565b611ad68186611369565b94506001821660008114611af15760018114611b0757611b3a565b60ff198316865281151560200286019350611b3a565b611b1085611832565b60005b83811015611b3257815481890152600182019150602081019050611b13565b808801955050505b50505092915050565b6000604082019050611b586000830185611ab0565b8181036020830152611b6a8184611abf565b90509392505050565b6000602082019050611b886000830184611ab0565b9291505056fea26469706673582212205079666fda1f44ae5fd6afe94dca554df95d01ccfc27817de6884e9a3e5dd8d364736f6c63430008110033",
  "linkReferences": {},
  "deployedLinkReferences": {}
}