{
  "_format": "hh-sol-artifact-1",
  "contractName": "SoulboundNFT",
  "sourceName": "contracts/SoulboundNFT.sol",
  "abi": [
    {
      "inputs": [
        {
          "internalType": "string",
          "name": "_name",
          "type": "string"
        },
        {
          "internalType": "string",
          "name": "_symbol",
          "type": "string"
        },
        {
          "internalType": "string",
          "name": "_uri",
          "type": "string"
        },
        {
          "internalType": "uint256",
          "name": "maxSupply",
          "type": "uint256"
        }
      ],
      "stateMutability": "payable",
      "type": "constructor"
    },
    {
      "anonymous": false,
      "inputs": [
        {
          "indexed": true,
          "internalType": "address",
          "name": "owner",
          "type": "address"
        },
        {
          "indexed": true,
          "internalType": "address",
          "name": "approved",
          "type": "address"
        },
        {
          "indexed": true,
          "internalType": "uint256",
          "name": "tokenId",
          "type": "uint256"
        }
      ],
      "name": "Approval",
      "type": "event"
    },
    {
      "anonymous": false,
      "inputs": [
        {
          "indexed": true,
          "internalType": "address",
          "name": "owner",
          "type": "address"
        },
        {
          "indexed": true,
          "internalType": "address",
          "name": "operator",
          "type": "address"
        },
        {
          "indexed": false,
          "internalType": "bool",
          "name": "approved",
          "type": "bool"
        }
      ],
      "name": "ApprovalForAll",
      "type": "event"
    },
    {
      "anonymous": false,
      "inputs": [
        {
          "indexed": true,
          "internalType": "address",
          "name": "previousOwner",
          "type": "address"
        },
        {
          "indexed": true,
          "internalType": "address",
          "name": "newOwner",
          "type": "address"
        }
      ],
      "name": "OwnershipTransferred",
      "type": "event"
    },
    {
      "anonymous": false,
      "inputs": [
        {
          "indexed": false,
          "internalType": "address",
          "name": "account",
          "type": "address"
        }
      ],
      "name": "Paused",
      "type": "event"
    },
    {
      "anonymous": false,
      "inputs": [
        {
          "indexed": true,
          "internalType": "address",
          "name": "from",
          "type": "address"
        },
        {
          "indexed": true,
          "internalType": "address",
          "name": "to",
          "type": "address"
        },
        {
          "indexed": true,
          "internalType": "uint256",
          "name": "tokenId",
          "type": "uint256"
        }
      ],
      "name": "Transfer",
      "type": "event"
    },
    {
      "anonymous": false,
      "inputs": [
        {
          "indexed": false,
          "internalType": "address",
          "name": "account",
          "type": "address"
        }
      ],
      "name": "Unpaused",
      "type": "event"
    },
    {
      "inputs": [],
      "name": "MAX_SUPPLY",
      "outputs": [
        {
          "internalType": "uint256",
          "name": "",
          "type": "uint256"
        }
      ],
      "stateMutability": "view",
      "type": "function"
    },
    {
      "inputs": [
        {
          "internalType": "address",
          "name": "to",
          "type": "address"
        },
        {
          "internalType": "uint256",
          "name": "tokenId",
          "type": "uint256"
        }
      ],
      "name": "approve",
      "outputs": [],
      "stateMutability": "nonpayable",
      "type": "function"
    },
    {
      "inputs": [
        {
          "internalType": "address",
          "name": "owner",
          "type": "address"
        }
      ],
      "name": "balanceOf",
      "outputs": [
        {
          "internalType": "uint256",
          "name": "",
          "type": "uint256"
        }
      ],
      "stateMutability": "view",
      "type": "function"
    },
    {
      "inputs": [
        {
          "internalType": "uint256",
          "name": "tokenId",
          "type": "uint256"
        }
      ],
      "name": "getApproved",
      "outputs": [
        {
          "internalType": "address",
          "name": "",
          "type": "address"
        }
      ],
      "stateMutability": "view",
      "type": "function"
    },
    {
      "inputs": [
        {
          "internalType": "address",
          "name": "owner",
          "type": "address"
        },
        {
          "internalType": "address",
          "name": "operator",
          "type": "address"
        }
      ],
      "name": "isApprovedForAll",
      "outputs": [
        {
          "internalType": "bool",
          "name": "",
          "type": "bool"
        }
      ],
      "stateMutability": "view",
      "type": "function"
    },
    {
      "inputs": [
        {
          "internalType": "address",
          "name": "to",
          "type": "address"
        }
      ],
      "name": "mint",
      "outputs": [],
      "stateMutability": "nonpayable",
      "type": "function"
    },
    {
      "inputs": [],
      "name": "name",
      "outputs": [
        {
          "internalType": "string",
          "name": "",
          "type": "string"
        }
      ],
      "stateMutability": "view",
      "type": "function"
    },
    {
      "inputs": [],
      "name": "owner",
      "outputs": [
        {
          "internalType": "address",
          "name": "",
          "type": "address"
        }
      ],
      "stateMutability": "view",
      "type": "function"
    },
    {
      "inputs": [
        {
          "internalType": "uint256",
          "name": "tokenId",
          "type": "uint256"
        }
      ],
      "name": "ownerOf",
      "outputs": [
        {
          "internalType": "address",
          "name": "",
          "type": "address"
        }
      ],
      "stateMutability": "view",
      "type": "function"
    },
    {
      "inputs": [],
      "name": "paused",
      "outputs": [
        {
          "internalType": "bool",
          "name": "",
          "type": "bool"
        }
      ],
      "stateMutability": "view",
      "type": "function"
    },
    {
      "inputs": [],
      "name": "renounceOwnership",
      "outputs": [],
      "stateMutability": "nonpayable",
      "type": "function"
    },
    {
      "inputs": [
        {
          "internalType": "address",
          "name": "from",
          "type": "address"
        },
        {
          "internalType": "address",
          "name": "to",
          "type": "address"
        },
        {
          "internalType": "uint256",
          "name": "tokenId",
          "type": "uint256"
        }
      ],
      "name": "safeTransferFrom",
      "outputs": [],
      "stateMutability": "nonpayable",
      "type": "function"
    },
    {
      "inputs": [
        {
          "internalType": "address",
          "name": "from",
          "type": "address"
        },
        {
          "internalType": "address",
          "name": "to",
          "type": "address"
        },
        {
          "internalType": "uint256",
          "name": "tokenId",
          "type": "uint256"
        },
        {
          "internalType": "bytes",
          "name": "data",
          "type": "bytes"
        }
      ],
      "name": "safeTransferFrom",
      "outputs": [],
      "stateMutability": "nonpayable",
      "type": "function"
    },
    {
      "inputs": [
        {
          "internalType": "address",
          "name": "operator",
          "type": "address"
        },
        {
          "internalType": "bool",
          "name": "approved",
          "type": "bool"
        }
      ],
      "name": "setApprovalForAll",
      "outputs": [],
      "stateMutability": "nonpayable",
      "type": "function"
    },
    {
      "inputs": [
        {
          "internalType": "string",
          "name": "baseURI_",
          "type": "string"
        }
      ],
      "name": "setBaseURI",
      "outputs": [],
      "stateMutability": "nonpayable",
      "type": "function"
    },
    {
      "inputs": [
        {
          "internalType": "bytes4",
          "name": "interfaceId",
          "type": "bytes4"
        }
      ],
      "name": "supportsInterface",
      "outputs": [
        {
          "internalType": "bool",
          "name": "",
          "type": "bool"
        }
      ],
      "stateMutability": "view",
      "type": "function"
    },
    {
      "inputs": [],
      "name": "symbol",
      "outputs": [
        {
          "internalType": "string",
          "name": "",
          "type": "string"
        }
      ],
      "stateMutability": "view",
      "type": "function"
    },
    {
      "inputs": [
        {
          "internalType": "uint256",
          "name": "index",
          "type": "uint256"
        }
      ],
      "name": "tokenByIndex",
      "outputs": [
        {
          "internalType": "uint256",
          "name": "",
          "type": "uint256"
        }
      ],
      "stateMutability": "view",
      "type": "function"
    },
    {
      "inputs": [
        {
          "internalType": "address",
          "name": "owner",
          "type": "address"
        },
        {
          "internalType": "uint256",
          "name": "index",
          "type": "uint256"
        }
      ],
      "name": "tokenOfOwnerByIndex",
      "outputs": [
        {
          "internalType": "uint256",
          "name": "",
          "type": "uint256"
        }
      ],
      "stateMutability": "view",
      "type": "function"
    },
    {
      "inputs": [
        {
          "internalType": "uint256",
          "name": "tokenId",
          "type": "uint256"
        }
      ],
      "name": "tokenURI",
      "outputs": [
        {
          "internalType": "string",
          "name": "",
          "type": "string"
        }
      ],
      "stateMutability": "view",
      "type": "function"
    },
    {
      "inputs": [],
      "name": "totalSupply",
      "outputs": [
        {
          "internalType": "uint256",
          "name": "",
          "type": "uint256"
        }
      ],
      "stateMutability": "view",
      "type": "function"
    },
    {
      "inputs": [
        {
          "internalType": "address",
          "name": "from",
          "type": "address"
        },
        {
          "internalType": "address",
          "name": "to",
          "type": "address"
        },
        {
          "internalType": "uint256",
          "name": "tokenId",
          "type": "uint256"
        }
      ],
      "name": "transferFrom",
      "outputs": [],
      "stateMutability": "nonpayable",
      "type": "function"
    },
    {
      "inputs": [
        {
          "internalType": "address",
          "name": "newOwner",
          "type": "address"
        }
      ],
      "name": "transferOwnership",
      "outputs": [],
      "stateMutability": "nonpayable",
      "type": "function"
    }
  ],
  "bytecode": "0x60a060405260405162003fda38038062003fda83398181016040528101906200002991906200044f565b838381600090816200003c91906200075f565b5080600190816200004e91906200075f565b5050506000600a60006101000a81548160ff0219169083151502179055506200008c62000080620000c060201b60201c565b620000c860201b60201c565b81600b90816200009d91906200075f565b508060808181525050620000b66200018e60201b60201c565b505050506200092b565b600033905090565b6000600a60019054906101000a900473ffffffffffffffffffffffffffffffffffffffff16905081600a60016101000a81548173ffffffffffffffffffffffffffffffffffffffff021916908373ffffffffffffffffffffffffffffffffffffffff1602179055508173ffffffffffffffffffffffffffffffffffffffff168173ffffffffffffffffffffffffffffffffffffffff167f8be0079c531659141344cd1fd0a4f28419497f9722a3daafe3b4186f6b6457e060405160405180910390a35050565b6200019e620001a060201b60201c565b565b620001b06200021560201b60201c565b6001600a60006101000a81548160ff0219169083151502179055507f62e78cea01bee320cd4e420270b5ea74000d11b0c9f74754ebdbfc544b05a258620001fc620000c060201b60201c565b6040516200020b91906200088b565b60405180910390a1565b620002256200026a60201b60201c565b1562000268576040517f08c379a00000000000000000000000000000000000000000000000000000000081526004016200025f9062000909565b60405180910390fd5b565b6000600a60009054906101000a900460ff16905090565b6000604051905090565b600080fd5b600080fd5b600080fd5b600080fd5b6000601f19601f8301169050919050565b7f4e487b7100000000000000000000000000000000000000000000000000000000600052604160045260246000fd5b620002ea826200029f565b810181811067ffffffffffffffff821117156200030c576200030b620002b0565b5b80604052505050565b60006200032162000281565b90506200032f8282620002df565b919050565b600067ffffffffffffffff821115620003525762000351620002b0565b5b6200035d826200029f565b9050602081019050919050565b60005b838110156200038a5780820151818401526020810190506200036d565b60008484015250505050565b6000620003ad620003a78462000334565b62000315565b905082815260208101848484011115620003cc57620003cb6200029a565b5b620003d98482856200036a565b509392505050565b600082601f830112620003f957620003f862000295565b5b81516200040b84826020860162000396565b91505092915050565b6000819050919050565b620004298162000414565b81146200043557600080fd5b50565b60008151905062000449816200041e565b92915050565b600080600080608085870312156200046c576200046b6200028b565b5b600085015167ffffffffffffffff8111156200048d576200048c62000290565b5b6200049b87828801620003e1565b945050602085015167ffffffffffffffff811115620004bf57620004be62000290565b5b620004cd87828801620003e1565b935050604085015167ffffffffffffffff811115620004f157620004f062000290565b5b620004ff87828801620003e1565b9250506060620005128782880162000438565b91505092959194509250565b600081519050919050565b7f4e487b7100000000000000000000000000000000000000000000000000000000600052602260045260246000fd5b600060028204905060018216806200057157607f821691505b60208210810362000587576200058662000529565b5b50919050565b60008190508160005260206000209050919050565b60006020601f8301049050919050565b600082821b905092915050565b600060088302620005f17fffffffffffffffffffffffffffffffffffffffffffffffffffffffffffffffff82620005b2565b620005fd8683620005b2565b95508019841693508086168417925050509392505050565b6000819050919050565b6000620006406200063a620006348462000414565b62000615565b62000414565b9050919050565b6000819050919050565b6200065c836200061f565b620006746200066b8262000647565b848454620005bf565b825550505050565b600090565b6200068b6200067c565b6200069881848462000651565b505050565b5b81811015620006c057620006b460008262000681565b6001810190506200069e565b5050565b601f8211156200070f57620006d9816200058d565b620006e484620005a2565b81016020851015620006f4578190505b6200070c6200070385620005a2565b8301826200069d565b50505b505050565b600082821c905092915050565b6000620007346000198460080262000714565b1980831691505092915050565b60006200074f838362000721565b9150826002028217905092915050565b6200076a826200051e565b67ffffffffffffffff811115620007865762000785620002b0565b5b62000792825462000558565b6200079f828285620006c4565b600060209050601f831160018114620007d75760008415620007c2578287015190505b620007ce858262000741565b8655506200083e565b601f198416620007e7866200058d565b60005b828110156200081157848901518255600182019150602085019450602081019050620007ea565b868310156200083157848901516200082d601f89168262000721565b8355505b6001600288020188555050505b505050505050565b600073ffffffffffffffffffffffffffffffffffffffff82169050919050565b6000620008738262000846565b9050919050565b620008858162000866565b82525050565b6000602082019050620008a260008301846200087a565b92915050565b600082825260208201905092915050565b7f5061757361626c653a2070617573656400000000000000000000000000000000600082015250565b6000620008f1601083620008a8565b9150620008fe82620008b9565b602082019050919050565b600060208201905081810360008301526200092481620008e2565b9050919050565b60805161368c6200094e600039600081816107850152610931015261368c6000f3fe608060405234801561001057600080fd5b506004361061014d5760003560e01c80635c975abb116100c357806395d89b411161007c57806395d89b411461039e578063a22cb465146103bc578063b88d4fde146103d8578063c87b56dd146103f4578063e985e9c514610424578063f2fde38b146104545761014d565b80635c975abb146102dc5780636352211e146102fa5780636a6278421461032a57806370a0823114610346578063715018a6146103765780638da5cb5b146103805761014d565b806323b872dd1161011557806323b872dd1461020a5780632f745c591461022657806332cb6b0c1461025657806342842e0e146102745780634f6ccce71461029057806355f804b3146102c05761014d565b806301ffc9a71461015257806306fdde0314610182578063081812fc146101a0578063095ea7b3146101d057806318160ddd146101ec575b600080fd5b61016c60048036038101906101679190612187565b610470565b60405161017991906121cf565b60405180910390f35b61018a610482565b604051610197919061227a565b60405180910390f35b6101ba60048036038101906101b591906122d2565b610514565b6040516101c79190612340565b60405180910390f35b6101ea60048036038101906101e59190612387565b61055a565b005b6101f4610671565b60405161020191906123d6565b60405180910390f35b610224600480360381019061021f91906123f1565b61067e565b005b610240600480360381019061023b9190612387565b6106de565b60405161024d91906123d6565b60405180910390f35b61025e610783565b60405161026b91906123d6565b60405180910390f35b61028e600480360381019061028991906123f1565b6107a7565b005b6102aa60048036038101906102a591906122d2565b6107c7565b6040516102b791906123d6565b60405180910390f35b6102da60048036038101906102d59190612579565b610838565b005b6102e4610853565b6040516102f191906121cf565b60405180910390f35b610314600480360381019061030f91906122d2565b61086a565b6040516103219190612340565b60405180910390f35b610344600480360381019061033f91906125c2565b61091b565b005b610360600480360381019061035b91906125c2565b6109ac565b60405161036d91906123d6565b60405180910390f35b61037e610a63565b005b610388610a77565b6040516103959190612340565b60405180910390f35b6103a6610aa1565b6040516103b3919061227a565b60405180910390f35b6103d660048036038101906103d1919061261b565b610b33565b005b6103f260048036038101906103ed91906126fc565b610b49565b005b61040e600480360381019061040991906122d2565b610bab565b60405161041b919061227a565b60405180910390f35b61043e6004803603810190610439919061277f565b610c13565b60405161044b91906121cf565b60405180910390f35b61046e600480360381019061046991906125c2565b610ca7565b005b600061047b82610d2a565b9050919050565b606060008054610491906127ee565b80601f01602080910402602001604051908101604052809291908181526020018280546104bd906127ee565b801561050a5780601f106104df5761010080835404028352916020019161050a565b820191906000526020600020905b8154815290600101906020018083116104ed57829003601f168201915b5050505050905090565b600061051f82610da4565b6004600083815260200190815260200160002060009054906101000a900473ffffffffffffffffffffffffffffffffffffffff169050919050565b60006105658261086a565b90508073ffffffffffffffffffffffffffffffffffffffff168373ffffffffffffffffffffffffffffffffffffffff16036105d5576040517f08c379a00000000000000000000000000000000000000000000000000000000081526004016105cc90612891565b60405180910390fd5b8073ffffffffffffffffffffffffffffffffffffffff166105f4610def565b73ffffffffffffffffffffffffffffffffffffffff16148061062357506106228161061d610def565b610c13565b5b610662576040517f08c379a000000000000000000000000000000000000000000000000000000000815260040161065990612923565b60405180910390fd5b61066c8383610df7565b505050565b6000600880549050905090565b61068f610689610def565b82610eb0565b6106ce576040517f08c379a00000000000000000000000000000000000000000000000000000000081526004016106c5906129b5565b60405180910390fd5b6106d9838383610f45565b505050565b60006106e9836109ac565b821061072a576040517f08c379a000000000000000000000000000000000000000000000000000000000815260040161072190612a47565b60405180910390fd5b600660008473ffffffffffffffffffffffffffffffffffffffff1673ffffffffffffffffffffffffffffffffffffffff168152602001908152602001600020600083815260200190815260200160002054905092915050565b7f000000000000000000000000000000000000000000000000000000000000000081565b6107c283838360405180602001604052806000815250610b49565b505050565b60006107d1610671565b8210610812576040517f08c379a000000000000000000000000000000000000000000000000000000000815260040161080990612ad9565b60405180910390fd5b6008828154811061082657610825612af9565b5b90600052602060002001549050919050565b6108406111ab565b80600b908161084f9190612cd4565b5050565b6000600a60009054906101000a900460ff16905090565b6000806002600084815260200190815260200160002060009054906101000a900473ffffffffffffffffffffffffffffffffffffffff169050600073ffffffffffffffffffffffffffffffffffffffff168173ffffffffffffffffffffffffffffffffffffffff1603610912576040517f08c379a000000000000000000000000000000000000000000000000000000000815260040161090990612df2565b60405180910390fd5b80915050919050565b6109236111ab565b600061092d610671565b90507f000000000000000000000000000000000000000000000000000000000000000060018261095d9190612e41565b111561099e576040517f08c379a000000000000000000000000000000000000000000000000000000000815260040161099590612ec1565b60405180910390fd5b6109a88282611229565b5050565b60008073ffffffffffffffffffffffffffffffffffffffff168273ffffffffffffffffffffffffffffffffffffffff1603610a1c576040517f08c379a0000000000000000000000000000000000000000000000000000000008152600401610a1390612f53565b60405180910390fd5b600360008373ffffffffffffffffffffffffffffffffffffffff1673ffffffffffffffffffffffffffffffffffffffff168152602001908152602001600020549050919050565b610a6b6111ab565b610a756000611247565b565b6000600a60019054906101000a900473ffffffffffffffffffffffffffffffffffffffff16905090565b606060018054610ab0906127ee565b80601f0160208091040260200160405190810160405280929190818152602001828054610adc906127ee565b8015610b295780601f10610afe57610100808354040283529160200191610b29565b820191906000526020600020905b815481529060010190602001808311610b0c57829003601f168201915b5050505050905090565b610b45610b3e610def565b838361130d565b5050565b610b5a610b54610def565b83610eb0565b610b99576040517f08c379a0000000000000000000000000000000000000000000000000000000008152600401610b90906129b5565b60405180910390fd5b610ba584848484611479565b50505050565b6060610bb682610da4565b6000610bc06114d5565b90506000815111610be05760405180602001604052806000815250610c0b565b80610bea84611567565b604051602001610bfb929190612faf565b6040516020818303038152906040525b915050919050565b6000600560008473ffffffffffffffffffffffffffffffffffffffff1673ffffffffffffffffffffffffffffffffffffffff16815260200190815260200160002060008373ffffffffffffffffffffffffffffffffffffffff1673ffffffffffffffffffffffffffffffffffffffff16815260200190815260200160002060009054906101000a900460ff16905092915050565b610caf6111ab565b600073ffffffffffffffffffffffffffffffffffffffff168173ffffffffffffffffffffffffffffffffffffffff1603610d1e576040517f08c379a0000000000000000000000000000000000000000000000000000000008152600401610d1590613045565b60405180910390fd5b610d2781611247565b50565b60007f780e9d63000000000000000000000000000000000000000000000000000000007bffffffffffffffffffffffffffffffffffffffffffffffffffffffff1916827bffffffffffffffffffffffffffffffffffffffffffffffffffffffff19161480610d9d5750610d9c826116c7565b5b9050919050565b610dad816117a9565b610dec576040517f08c379a0000000000000000000000000000000000000000000000000000000008152600401610de390612df2565b60405180910390fd5b50565b600033905090565b816004600083815260200190815260200160002060006101000a81548173ffffffffffffffffffffffffffffffffffffffff021916908373ffffffffffffffffffffffffffffffffffffffff160217905550808273ffffffffffffffffffffffffffffffffffffffff16610e6a8361086a565b73ffffffffffffffffffffffffffffffffffffffff167f8c5be1e5ebec7d5bd14f71427d1e84f3dd0314c0f7b2291e5b200ac8c7c3b92560405160405180910390a45050565b600080610ebc8361086a565b90508073ffffffffffffffffffffffffffffffffffffffff168473ffffffffffffffffffffffffffffffffffffffff161480610efe5750610efd8185610c13565b5b80610f3c57508373ffffffffffffffffffffffffffffffffffffffff16610f2484610514565b73ffffffffffffffffffffffffffffffffffffffff16145b91505092915050565b8273ffffffffffffffffffffffffffffffffffffffff16610f658261086a565b73ffffffffffffffffffffffffffffffffffffffff1614610fbb576040517f08c379a0000000000000000000000000000000000000000000000000000000008152600401610fb2906130d7565b60405180910390fd5b600073ffffffffffffffffffffffffffffffffffffffff168273ffffffffffffffffffffffffffffffffffffffff160361102a576040517f08c379a000000000000000000000000000000000000000000000000000000000815260040161102190613169565b60405180910390fd5b611035838383611815565b611040600082610df7565b6001600360008573ffffffffffffffffffffffffffffffffffffffff1673ffffffffffffffffffffffffffffffffffffffff16815260200190815260200160002060008282546110909190613189565b925050819055506001600360008473ffffffffffffffffffffffffffffffffffffffff1673ffffffffffffffffffffffffffffffffffffffff16815260200190815260200160002060008282546110e79190612e41565b92505081905550816002600083815260200190815260200160002060006101000a81548173ffffffffffffffffffffffffffffffffffffffff021916908373ffffffffffffffffffffffffffffffffffffffff160217905550808273ffffffffffffffffffffffffffffffffffffffff168473ffffffffffffffffffffffffffffffffffffffff167fddf252ad1be2c89b69c2b068fc378daa952ba7f163c4a11628f55a4df523b3ef60405160405180910390a46111a68383836118b1565b505050565b6111b3610def565b73ffffffffffffffffffffffffffffffffffffffff166111d1610a77565b73ffffffffffffffffffffffffffffffffffffffff1614611227576040517f08c379a000000000000000000000000000000000000000000000000000000000815260040161121e90613209565b60405180910390fd5b565b6112438282604051806020016040528060008152506118b6565b5050565b6000600a60019054906101000a900473ffffffffffffffffffffffffffffffffffffffff16905081600a60016101000a81548173ffffffffffffffffffffffffffffffffffffffff021916908373ffffffffffffffffffffffffffffffffffffffff1602179055508173ffffffffffffffffffffffffffffffffffffffff168173ffffffffffffffffffffffffffffffffffffffff167f8be0079c531659141344cd1fd0a4f28419497f9722a3daafe3b4186f6b6457e060405160405180910390a35050565b8173ffffffffffffffffffffffffffffffffffffffff168373ffffffffffffffffffffffffffffffffffffffff160361137b576040517f08c379a000000000000000000000000000000000000000000000000000000000815260040161137290613275565b60405180910390fd5b80600560008573ffffffffffffffffffffffffffffffffffffffff1673ffffffffffffffffffffffffffffffffffffffff16815260200190815260200160002060008473ffffffffffffffffffffffffffffffffffffffff1673ffffffffffffffffffffffffffffffffffffffff16815260200190815260200160002060006101000a81548160ff0219169083151502179055508173ffffffffffffffffffffffffffffffffffffffff168373ffffffffffffffffffffffffffffffffffffffff167f17307eab39ab6107e8899845ad3d59bd9653f200f220920489ca2b5937696c318360405161146c91906121cf565b60405180910390a3505050565b611484848484610f45565b61149084848484611911565b6114cf576040517f08c379a00000000000000000000000000000000000000000000000000000000081526004016114c690613307565b60405180910390fd5b50505050565b6060600b80546114e4906127ee565b80601f0160208091040260200160405190810160405280929190818152602001828054611510906127ee565b801561155d5780601f106115325761010080835404028352916020019161155d565b820191906000526020600020905b81548152906001019060200180831161154057829003601f168201915b5050505050905090565b6060600082036115ae576040518060400160405280600181526020017f300000000000000000000000000000000000000000000000000000000000000081525090506116c2565b600082905060005b600082146115e05780806115c990613327565b915050600a826115d9919061339e565b91506115b6565b60008167ffffffffffffffff8111156115fc576115fb61244e565b5b6040519080825280601f01601f19166020018201604052801561162e5781602001600182028036833780820191505090505b5090505b600085146116bb576001826116479190613189565b9150600a8561165691906133cf565b60306116629190612e41565b60f81b81838151811061167857611677612af9565b5b60200101907effffffffffffffffffffffffffffffffffffffffffffffffffffffffffffff1916908160001a905350600a856116b4919061339e565b9450611632565b8093505050505b919050565b60007f80ac58cd000000000000000000000000000000000000000000000000000000007bffffffffffffffffffffffffffffffffffffffffffffffffffffffff1916827bffffffffffffffffffffffffffffffffffffffffffffffffffffffff1916148061179257507f5b5e139f000000000000000000000000000000000000000000000000000000007bffffffffffffffffffffffffffffffffffffffffffffffffffffffff1916827bffffffffffffffffffffffffffffffffffffffffffffffffffffffff1916145b806117a257506117a182611a98565b5b9050919050565b60008073ffffffffffffffffffffffffffffffffffffffff166002600084815260200190815260200160002060009054906101000a900473ffffffffffffffffffffffffffffffffffffffff1673ffffffffffffffffffffffffffffffffffffffff1614159050919050565b61181d610a77565b73ffffffffffffffffffffffffffffffffffffffff1661183b610def565b73ffffffffffffffffffffffffffffffffffffffff161480156118625750611861610853565b5b6118a1576040517f08c379a00000000000000000000000000000000000000000000000000000000081526004016118989061344c565b60405180910390fd5b6118ac838383611b02565b505050565b505050565b6118c08383611c14565b6118cd6000848484611911565b61190c576040517f08c379a000000000000000000000000000000000000000000000000000000000815260040161190390613307565b60405180910390fd5b505050565b60006119328473ffffffffffffffffffffffffffffffffffffffff16611ded565b15611a8b578373ffffffffffffffffffffffffffffffffffffffff1663150b7a0261195b610def565b8786866040518563ffffffff1660e01b815260040161197d94939291906134c1565b6020604051808303816000875af19250505080156119b957506040513d601f19601f820116820180604052508101906119b69190613522565b60015b611a3b573d80600081146119e9576040519150601f19603f3d011682016040523d82523d6000602084013e6119ee565b606091505b506000815103611a33576040517f08c379a0000000000000000000000000000000000000000000000000000000008152600401611a2a90613307565b60405180910390fd5b805181602001fd5b63150b7a0260e01b7bffffffffffffffffffffffffffffffffffffffffffffffffffffffff1916817bffffffffffffffffffffffffffffffffffffffffffffffffffffffff191614915050611a90565b600190505b949350505050565b60007f01ffc9a7000000000000000000000000000000000000000000000000000000007bffffffffffffffffffffffffffffffffffffffffffffffffffffffff1916827bffffffffffffffffffffffffffffffffffffffffffffffffffffffff1916149050919050565b611b0d838383611e10565b600073ffffffffffffffffffffffffffffffffffffffff168373ffffffffffffffffffffffffffffffffffffffff1603611b4f57611b4a81611e15565b611b8e565b8173ffffffffffffffffffffffffffffffffffffffff168373ffffffffffffffffffffffffffffffffffffffff1614611b8d57611b8c8382611e5e565b5b5b600073ffffffffffffffffffffffffffffffffffffffff168273ffffffffffffffffffffffffffffffffffffffff1603611bd057611bcb81611fcb565b611c0f565b8273ffffffffffffffffffffffffffffffffffffffff168273ffffffffffffffffffffffffffffffffffffffff1614611c0e57611c0d828261209c565b5b5b505050565b600073ffffffffffffffffffffffffffffffffffffffff168273ffffffffffffffffffffffffffffffffffffffff1603611c83576040517f08c379a0000000000000000000000000000000000000000000000000000000008152600401611c7a9061359b565b60405180910390fd5b611c8c816117a9565b15611ccc576040517f08c379a0000000000000000000000000000000000000000000000000000000008152600401611cc390613607565b60405180910390fd5b611cd860008383611815565b6001600360008473ffffffffffffffffffffffffffffffffffffffff1673ffffffffffffffffffffffffffffffffffffffff1681526020019081526020016000206000828254611d289190612e41565b92505081905550816002600083815260200190815260200160002060006101000a81548173ffffffffffffffffffffffffffffffffffffffff021916908373ffffffffffffffffffffffffffffffffffffffff160217905550808273ffffffffffffffffffffffffffffffffffffffff16600073ffffffffffffffffffffffffffffffffffffffff167fddf252ad1be2c89b69c2b068fc378daa952ba7f163c4a11628f55a4df523b3ef60405160405180910390a4611de9600083836118b1565b5050565b6000808273ffffffffffffffffffffffffffffffffffffffff163b119050919050565b505050565b6008805490506009600083815260200190815260200160002081905550600881908060018154018082558091505060019003906000526020600020016000909190919091505550565b60006001611e6b846109ac565b611e759190613189565b9050600060076000848152602001908152602001600020549050818114611f5a576000600660008673ffffffffffffffffffffffffffffffffffffffff1673ffffffffffffffffffffffffffffffffffffffff168152602001908152602001600020600084815260200190815260200160002054905080600660008773ffffffffffffffffffffffffffffffffffffffff1673ffffffffffffffffffffffffffffffffffffffff168152602001908152602001600020600084815260200190815260200160002081905550816007600083815260200190815260200160002081905550505b6007600084815260200190815260200160002060009055600660008573ffffffffffffffffffffffffffffffffffffffff1673ffffffffffffffffffffffffffffffffffffffff16815260200190815260200160002060008381526020019081526020016000206000905550505050565b60006001600880549050611fdf9190613189565b905060006009600084815260200190815260200160002054905060006008838154811061200f5761200e612af9565b5b90600052602060002001549050806008838154811061203157612030612af9565b5b9060005260206000200181905550816009600083815260200190815260200160002081905550600960008581526020019081526020016000206000905560088054806120805761207f613627565b5b6001900381819060005260206000200160009055905550505050565b60006120a7836109ac565b905081600660008573ffffffffffffffffffffffffffffffffffffffff1673ffffffffffffffffffffffffffffffffffffffff168152602001908152602001600020600083815260200190815260200160002081905550806007600084815260200190815260200160002081905550505050565b6000604051905090565b600080fd5b600080fd5b60007fffffffff0000000000000000000000000000000000000000000000000000000082169050919050565b6121648161212f565b811461216f57600080fd5b50565b6000813590506121818161215b565b92915050565b60006020828403121561219d5761219c612125565b5b60006121ab84828501612172565b91505092915050565b60008115159050919050565b6121c9816121b4565b82525050565b60006020820190506121e460008301846121c0565b92915050565b600081519050919050565b600082825260208201905092915050565b60005b83811015612224578082015181840152602081019050612209565b60008484015250505050565b6000601f19601f8301169050919050565b600061224c826121ea565b61225681856121f5565b9350612266818560208601612206565b61226f81612230565b840191505092915050565b600060208201905081810360008301526122948184612241565b905092915050565b6000819050919050565b6122af8161229c565b81146122ba57600080fd5b50565b6000813590506122cc816122a6565b92915050565b6000602082840312156122e8576122e7612125565b5b60006122f6848285016122bd565b91505092915050565b600073ffffffffffffffffffffffffffffffffffffffff82169050919050565b600061232a826122ff565b9050919050565b61233a8161231f565b82525050565b60006020820190506123556000830184612331565b92915050565b6123648161231f565b811461236f57600080fd5b50565b6000813590506123818161235b565b92915050565b6000806040838503121561239e5761239d612125565b5b60006123ac85828601612372565b92505060206123bd858286016122bd565b9150509250929050565b6123d08161229c565b82525050565b60006020820190506123eb60008301846123c7565b92915050565b60008060006060848603121561240a57612409612125565b5b600061241886828701612372565b935050602061242986828701612372565b925050604061243a868287016122bd565b9150509250925092565b600080fd5b600080fd5b7f4e487b7100000000000000000000000000000000000000000000000000000000600052604160045260246000fd5b61248682612230565b810181811067ffffffffffffffff821117156124a5576124a461244e565b5b80604052505050565b60006124b861211b565b90506124c4828261247d565b919050565b600067ffffffffffffffff8211156124e4576124e361244e565b5b6124ed82612230565b9050602081019050919050565b82818337600083830152505050565b600061251c612517846124c9565b6124ae565b90508281526020810184848401111561253857612537612449565b5b6125438482856124fa565b509392505050565b600082601f8301126125605761255f612444565b5b8135612570848260208601612509565b91505092915050565b60006020828403121561258f5761258e612125565b5b600082013567ffffffffffffffff8111156125ad576125ac61212a565b5b6125b98482850161254b565b91505092915050565b6000602082840312156125d8576125d7612125565b5b60006125e684828501612372565b91505092915050565b6125f8816121b4565b811461260357600080fd5b50565b600081359050612615816125ef565b92915050565b6000806040838503121561263257612631612125565b5b600061264085828601612372565b925050602061265185828601612606565b9150509250929050565b600067ffffffffffffffff8211156126765761267561244e565b5b61267f82612230565b9050602081019050919050565b600061269f61269a8461265b565b6124ae565b9050828152602081018484840111156126bb576126ba612449565b5b6126c68482856124fa565b509392505050565b600082601f8301126126e3576126e2612444565b5b81356126f384826020860161268c565b91505092915050565b6000806000806080858703121561271657612715612125565b5b600061272487828801612372565b945050602061273587828801612372565b9350506040612746878288016122bd565b925050606085013567ffffffffffffffff8111156127675761276661212a565b5b612773878288016126ce565b91505092959194509250565b6000806040838503121561279657612795612125565b5b60006127a485828601612372565b92505060206127b585828601612372565b9150509250929050565b7f4e487b7100000000000000000000000000000000000000000000000000000000600052602260045260246000fd5b6000600282049050600182168061280657607f821691505b602082108103612819576128186127bf565b5b50919050565b7f4552433732313a20617070726f76616c20746f2063757272656e74206f776e6560008201527f7200000000000000000000000000000000000000000000000000000000000000602082015250565b600061287b6021836121f5565b91506128868261281f565b604082019050919050565b600060208201905081810360008301526128aa8161286e565b9050919050565b7f4552433732313a20617070726f76652063616c6c6572206973206e6f7420746f60008201527f6b656e206f776e6572206e6f7220617070726f76656420666f7220616c6c0000602082015250565b600061290d603e836121f5565b9150612918826128b1565b604082019050919050565b6000602082019050818103600083015261293c81612900565b9050919050565b7f4552433732313a2063616c6c6572206973206e6f7420746f6b656e206f776e6560008201527f72206e6f7220617070726f766564000000000000000000000000000000000000602082015250565b600061299f602e836121f5565b91506129aa82612943565b604082019050919050565b600060208201905081810360008301526129ce81612992565b9050919050565b7f455243373231456e756d657261626c653a206f776e657220696e646578206f7560008201527f74206f6620626f756e6473000000000000000000000000000000000000000000602082015250565b6000612a31602b836121f5565b9150612a3c826129d5565b604082019050919050565b60006020820190508181036000830152612a6081612a24565b9050919050565b7f455243373231456e756d657261626c653a20676c6f62616c20696e646578206f60008201527f7574206f6620626f756e64730000000000000000000000000000000000000000602082015250565b6000612ac3602c836121f5565b9150612ace82612a67565b604082019050919050565b60006020820190508181036000830152612af281612ab6565b9050919050565b7f4e487b7100000000000000000000000000000000000000000000000000000000600052603260045260246000fd5b60008190508160005260206000209050919050565b60006020601f8301049050919050565b600082821b905092915050565b600060088302612b8a7fffffffffffffffffffffffffffffffffffffffffffffffffffffffffffffffff82612b4d565b612b948683612b4d565b95508019841693508086168417925050509392505050565b6000819050919050565b6000612bd1612bcc612bc78461229c565b612bac565b61229c565b9050919050565b6000819050919050565b612beb83612bb6565b612bff612bf782612bd8565b848454612b5a565b825550505050565b600090565b612c14612c07565b612c1f818484612be2565b505050565b5b81811015612c4357612c38600082612c0c565b600181019050612c25565b5050565b601f821115612c8857612c5981612b28565b612c6284612b3d565b81016020851015612c71578190505b612c85612c7d85612b3d565b830182612c24565b50505b505050565b600082821c905092915050565b6000612cab60001984600802612c8d565b1980831691505092915050565b6000612cc48383612c9a565b9150826002028217905092915050565b612cdd826121ea565b67ffffffffffffffff811115612cf657612cf561244e565b5b612d0082546127ee565b612d0b828285612c47565b600060209050601f831160018114612d3e5760008415612d2c578287015190505b612d368582612cb8565b865550612d9e565b601f198416612d4c86612b28565b60005b82811015612d7457848901518255600182019150602085019450602081019050612d4f565b86831015612d915784890151612d8d601f891682612c9a565b8355505b6001600288020188555050505b505050505050565b7f4552433732313a20696e76616c696420746f6b656e2049440000000000000000600082015250565b6000612ddc6018836121f5565b9150612de782612da6565b602082019050919050565b60006020820190508181036000830152612e0b81612dcf565b9050919050565b7f4e487b7100000000000000000000000000000000000000000000000000000000600052601160045260246000fd5b6000612e4c8261229c565b9150612e578361229c565b9250828201905080821115612e6f57612e6e612e12565b5b92915050565b7f4d696e7420776f756c6420657863656564206d617820737570706c7900000000600082015250565b6000612eab601c836121f5565b9150612eb682612e75565b602082019050919050565b60006020820190508181036000830152612eda81612e9e565b9050919050565b7f4552433732313a2061646472657373207a65726f206973206e6f74206120766160008201527f6c6964206f776e65720000000000000000000000000000000000000000000000602082015250565b6000612f3d6029836121f5565b9150612f4882612ee1565b604082019050919050565b60006020820190508181036000830152612f6c81612f30565b9050919050565b600081905092915050565b6000612f89826121ea565b612f938185612f73565b9350612fa3818560208601612206565b80840191505092915050565b6000612fbb8285612f7e565b9150612fc78284612f7e565b91508190509392505050565b7f4f776e61626c653a206e6577206f776e657220697320746865207a65726f206160008201527f6464726573730000000000000000000000000000000000000000000000000000602082015250565b600061302f6026836121f5565b915061303a82612fd3565b604082019050919050565b6000602082019050818103600083015261305e81613022565b9050919050565b7f4552433732313a207472616e736665722066726f6d20696e636f72726563742060008201527f6f776e6572000000000000000000000000000000000000000000000000000000602082015250565b60006130c16025836121f5565b91506130cc82613065565b604082019050919050565b600060208201905081810360008301526130f0816130b4565b9050919050565b7f4552433732313a207472616e7366657220746f20746865207a65726f2061646460008201527f7265737300000000000000000000000000000000000000000000000000000000602082015250565b60006131536024836121f5565b915061315e826130f7565b604082019050919050565b6000602082019050818103600083015261318281613146565b9050919050565b60006131948261229c565b915061319f8361229c565b92508282039050818111156131b7576131b6612e12565b5b92915050565b7f4f776e61626c653a2063616c6c6572206973206e6f7420746865206f776e6572600082015250565b60006131f36020836121f5565b91506131fe826131bd565b602082019050919050565b60006020820190508181036000830152613222816131e6565b9050919050565b7f4552433732313a20617070726f766520746f2063616c6c657200000000000000600082015250565b600061325f6019836121f5565b915061326a82613229565b602082019050919050565b6000602082019050818103600083015261328e81613252565b9050919050565b7f4552433732313a207472616e7366657220746f206e6f6e20455243373231526560008201527f63656976657220696d706c656d656e7465720000000000000000000000000000602082015250565b60006132f16032836121f5565b91506132fc82613295565b604082019050919050565b60006020820190508181036000830152613320816132e4565b9050919050565b60006133328261229c565b91507fffffffffffffffffffffffffffffffffffffffffffffffffffffffffffffffff820361336457613363612e12565b5b600182019050919050565b7f4e487b7100000000000000000000000000000000000000000000000000000000600052601260045260246000fd5b60006133a98261229c565b91506133b48361229c565b9250826133c4576133c361336f565b5b828204905092915050565b60006133da8261229c565b91506133e58361229c565b9250826133f5576133f461336f565b5b828206905092915050565b7f6e6f74206f776e65722063616e6e6f74206d696e740000000000000000000000600082015250565b60006134366015836121f5565b915061344182613400565b602082019050919050565b6000602082019050818103600083015261346581613429565b9050919050565b600081519050919050565b600082825260208201905092915050565b60006134938261346c565b61349d8185613477565b93506134ad818560208601612206565b6134b681612230565b840191505092915050565b60006080820190506134d66000830187612331565b6134e36020830186612331565b6134f060408301856123c7565b81810360608301526135028184613488565b905095945050505050565b60008151905061351c8161215b565b92915050565b60006020828403121561353857613537612125565b5b60006135468482850161350d565b91505092915050565b7f4552433732313a206d696e7420746f20746865207a65726f2061646472657373600082015250565b60006135856020836121f5565b91506135908261354f565b602082019050919050565b600060208201905081810360008301526135b481613578565b9050919050565b7f4552433732313a20746f6b656e20616c7265616479206d696e74656400000000600082015250565b60006135f1601c836121f5565b91506135fc826135bb565b602082019050919050565b60006020820190508181036000830152613620816135e4565b9050919050565b7f4e487b7100000000000000000000000000000000000000000000000000000000600052603160045260246000fdfea2646970667358221220dd716c7921b9eca3479d9e4711034db523ab3ae77bf0e315a27fcb54c261b9c864736f6c63430008110033",
  "linkReferences": {},
  "deployedLinkReferences": {}
}